{
  "_format": "hh-sol-artifact-1",
  "contractName": "PatientManagement",
  "sourceName": "contracts/PatientManagement.sol",
  "abi": [
    {
      "inputs": [],
      "stateMutability": "nonpayable",
      "type": "constructor"
    },
    {
      "anonymous": false,
      "inputs": [
        {
          "indexed": true,
          "internalType": "address",
          "name": "patient",
          "type": "address"
        },
        {
          "indexed": true,
          "internalType": "address",
          "name": "entity",
          "type": "address"
        }
      ],
      "name": "AccessGranted",
      "type": "event"
    },
    {
      "anonymous": false,
      "inputs": [
        {
          "indexed": true,
          "internalType": "address",
          "name": "patient",
          "type": "address"
        },
        {
          "indexed": true,
          "internalType": "address",
          "name": "entity",
          "type": "address"
        }
      ],
      "name": "AccessRevoked",
      "type": "event"
    },
    {
      "anonymous": false,
      "inputs": [
        {
          "indexed": true,
          "internalType": "address",
          "name": "patient",
          "type": "address"
        },
        {
          "indexed": true,
          "internalType": "address",
          "name": "entity",
          "type": "address"
        }
      ],
      "name": "EmergencyAccessGranted",
      "type": "event"
    },
    {
      "anonymous": false,
      "inputs": [
        {
          "indexed": true,
          "internalType": "address",
          "name": "patient",
          "type": "address"
        },
        {
          "indexed": true,
          "internalType": "address",
          "name": "agent",
          "type": "address"
        }
      ],
      "name": "InsuranceAgentAccessExpired",
      "type": "event"
    },
    {
      "anonymous": false,
      "inputs": [
        {
          "indexed": true,
          "internalType": "address",
          "name": "patient",
          "type": "address"
        },
        {
          "indexed": true,
          "internalType": "address",
          "name": "agent",
          "type": "address"
        },
        {
          "indexed": false,
          "internalType": "uint256",
          "name": "expiryTime",
          "type": "uint256"
        }
      ],
      "name": "InsuranceAgentAccessGranted",
      "type": "event"
    },
    {
      "anonymous": false,
      "inputs": [
        {
          "indexed": true,
          "internalType": "address",
          "name": "patient",
          "type": "address"
        },
        {
          "indexed": false,
          "internalType": "uint256",
          "name": "recordId",
          "type": "uint256"
        },
        {
          "indexed": false,
          "internalType": "uint256",
          "name": "timestamp",
          "type": "uint256"
        }
      ],
      "name": "RecordUploaded",
      "type": "event"
    },
    {
      "anonymous": false,
      "inputs": [
        {
          "indexed": true,
          "internalType": "address",
          "name": "patient",
          "type": "address"
        },
        {
          "indexed": true,
          "internalType": "address",
          "name": "doctor",
          "type": "address"
        },
        {
          "indexed": false,
          "internalType": "uint256",
          "name": "recordId",
          "type": "uint256"
        }
      ],
      "name": "ReportAdded",
      "type": "event"
    },
    {
      "inputs": [
        {
          "internalType": "address",
          "name": "patient",
          "type": "address"
        },
        {
          "internalType": "bytes",
          "name": "reportHash",
          "type": "bytes"
        }
      ],
      "name": "addMedicalReport",
      "outputs": [],
      "stateMutability": "nonpayable",
      "type": "function"
    },
    {
      "inputs": [
        {
          "internalType": "address",
          "name": "patient",
          "type": "address"
        },
        {
          "internalType": "address",
          "name": "agent",
          "type": "address"
        }
      ],
      "name": "checkInsuranceAgentAccess",
      "outputs": [
        {
          "internalType": "bool",
          "name": "",
          "type": "bool"
        },
        {
          "internalType": "uint256",
          "name": "",
          "type": "uint256"
        }
      ],
      "stateMutability": "view",
      "type": "function"
    },
    {
      "inputs": [
        {
          "internalType": "address",
          "name": "patient",
          "type": "address"
        }
      ],
      "name": "getAccessList",
      "outputs": [
        {
          "internalType": "address[]",
          "name": "",
          "type": "address[]"
        }
      ],
      "stateMutability": "view",
      "type": "function"
    },
    {
      "inputs": [
        {
          "internalType": "address",
          "name": "entity",
          "type": "address"
        }
      ],
      "name": "grantAccess",
      "outputs": [],
      "stateMutability": "nonpayable",
      "type": "function"
    },
    {
      "inputs": [
        {
          "internalType": "address",
          "name": "entity",
          "type": "address"
        }
      ],
      "name": "grantEmergencyAccess",
      "outputs": [],
      "stateMutability": "nonpayable",
      "type": "function"
    },
    {
      "inputs": [
        {
          "internalType": "address",
          "name": "agent",
          "type": "address"
        }
      ],
      "name": "grantInsuranceAgentAccess",
      "outputs": [],
      "stateMutability": "nonpayable",
      "type": "function"
    },
    {
      "inputs": [
        {
          "internalType": "address",
          "name": "patient",
          "type": "address"
        },
        {
          "internalType": "address[]",
          "name": "approvers",
          "type": "address[]"
        }
      ],
      "name": "multiSigUnlock",
      "outputs": [],
      "stateMutability": "nonpayable",
      "type": "function"
    },
    {
      "inputs": [],
      "name": "owner",
      "outputs": [
        {
          "internalType": "address",
          "name": "",
          "type": "address"
        }
      ],
      "stateMutability": "view",
      "type": "function"
    },
    {
      "inputs": [
        {
          "internalType": "address",
          "name": "",
          "type": "address"
        }
      ],
      "name": "patients",
      "outputs": [
        {
          "internalType": "uint256",
          "name": "recordCount",
          "type": "uint256"
        }
      ],
      "stateMutability": "view",
      "type": "function"
    },
    {
      "inputs": [
        {
          "internalType": "address",
          "name": "",
          "type": "address"
        },
        {
          "internalType": "uint256",
          "name": "",
          "type": "uint256"
        }
      ],
      "name": "records",
      "outputs": [
        {
          "internalType": "bytes",
          "name": "recordHash",
          "type": "bytes"
        },
        {
          "internalType": "uint256",
          "name": "timestamp",
          "type": "uint256"
        },
        {
          "internalType": "address",
          "name": "uploader",
          "type": "address"
        }
      ],
      "stateMutability": "view",
      "type": "function"
    },
    {
      "inputs": [
        {
          "internalType": "address",
          "name": "entity",
          "type": "address"
        }
      ],
      "name": "revokeAccess",
      "outputs": [],
      "stateMutability": "nonpayable",
      "type": "function"
    },
    {
      "inputs": [
        {
          "internalType": "address",
          "name": "agent",
          "type": "address"
        }
      ],
      "name": "revokeInsuranceAgentAccess",
      "outputs": [],
      "stateMutability": "nonpayable",
      "type": "function"
    },
    {
      "inputs": [
        {
          "internalType": "bytes",
          "name": "recordHash",
          "type": "bytes"
        }
      ],
      "name": "uploadRecord",
      "outputs": [],
      "stateMutability": "nonpayable",
      "type": "function"
    },
    {
      "inputs": [
        {
          "internalType": "address",
          "name": "patient",
          "type": "address"
        }
      ],
      "name": "viewPatientRecords",
      "outputs": [
        {
          "internalType": "bytes[]",
          "name": "",
          "type": "bytes[]"
        }
      ],
      "stateMutability": "view",
      "type": "function"
    },
    {
      "inputs": [],
      "name": "viewRecords",
      "outputs": [
        {
          "internalType": "bytes[]",
          "name": "",
          "type": "bytes[]"
        }
      ],
      "stateMutability": "view",
      "type": "function"
    }
  ],
  "bytecode": "0x6080604052348015600f57600080fd5b50336000806101000a81548173ffffffffffffffffffffffffffffffffffffffff021916908373ffffffffffffffffffffffffffffffffffffffff16021790555061382e8061005f6000396000f3fe608060405234801561001057600080fd5b50600436106100f55760003560e01c806380efcb3c116100975780638da5cb5b116100665780638da5cb5b14610297578063aabc4280146102b5578063da01581c146102d1578063dd5751c4146102ed576100f5565b806380efcb3c146101fd57806382a6c0ac1461022d57806385e685311461025f5780638d242b711461027b576100f5565b806338a10c91116100d357806338a10c911461017657806354152146146101a757806370c10445146101c35780637ab0e4c9146101e1576100f5565b80630869cfbc146100fa5780630ae5e7391461012a578063122dbe1414610146575b600080fd5b610114600480360381019061010f91906128a2565b610309565b60405161012191906128e8565b60405180910390f35b610144600480360381019061013f91906128a2565b610327565b005b610160600480360381019061015b91906128a2565b6105fa565b60405161016d9190612a55565b60405180910390f35b610190600480360381019061018b9190612a77565b6109b1565b60405161019e929190612ad2565b60405180910390f35b6101c160048036038101906101bc91906128a2565b610a59565b005b6101cb610bfb565b6040516101d89190612a55565b60405180910390f35b6101fb60048036038101906101f691906128a2565b610fb0565b005b610217600480360381019061021291906128a2565b61111e565b6040516102249190612bb9565b60405180910390f35b61024760048036038101906102429190612c07565b6113ed565b60405161025693929190612ca0565b60405180910390f35b610279600480360381019061027491906128a2565b6114cc565b005b61029560048036038101906102909190612e26565b611b92565b005b61029f611d6f565b6040516102ac9190612e82565b60405180910390f35b6102cf60048036038101906102ca91906128a2565b611d93565b005b6102eb60048036038101906102e69190612f52565b6121c2565b005b61030760048036038101906103029190612fae565b6125b5565b005b60016020528060005260406000206000915090508060000154905081565b600073ffffffffffffffffffffffffffffffffffffffff168173ffffffffffffffffffffffffffffffffffffffff1603610396576040517f08c379a000000000000000000000000000000000000000000000000000000000815260040161038d90613054565b60405180910390fd5b600160003373ffffffffffffffffffffffffffffffffffffffff1673ffffffffffffffffffffffffffffffffffffffff16815260200190815260200160002060010160008273ffffffffffffffffffffffffffffffffffffffff1673ffffffffffffffffffffffffffffffffffffffff16815260200190815260200160002060009054906101000a900460ff1615610463576040517f08c379a000000000000000000000000000000000000000000000000000000000815260040161045a906130c0565b60405180910390fd5b60018060003373ffffffffffffffffffffffffffffffffffffffff1673ffffffffffffffffffffffffffffffffffffffff16815260200190815260200160002060010160008373ffffffffffffffffffffffffffffffffffffffff1673ffffffffffffffffffffffffffffffffffffffff16815260200190815260200160002060006101000a81548160ff021916908315150217905550600160003373ffffffffffffffffffffffffffffffffffffffff1673ffffffffffffffffffffffffffffffffffffffff168152602001908152602001600020600401819080600181540180825580915050600190039060005260206000200160009091909190916101000a81548173ffffffffffffffffffffffffffffffffffffffff021916908373ffffffffffffffffffffffffffffffffffffffff1602179055508073ffffffffffffffffffffffffffffffffffffffff163373ffffffffffffffffffffffffffffffffffffffff167f9f520b3bfc56d06f7065d10b4683b3f57ac8895d5026cd176dee95ce1454cb8d60405160405180910390a350565b606081600160008273ffffffffffffffffffffffffffffffffffffffff1673ffffffffffffffffffffffffffffffffffffffff16815260200190815260200160002060010160003373ffffffffffffffffffffffffffffffffffffffff1673ffffffffffffffffffffffffffffffffffffffff16815260200190815260200160002060009054906101000a900460ff168061071e5750600160008273ffffffffffffffffffffffffffffffffffffffff1673ffffffffffffffffffffffffffffffffffffffff16815260200190815260200160002060020160003373ffffffffffffffffffffffffffffffffffffffff1673ffffffffffffffffffffffffffffffffffffffff16815260200190815260200160002060009054906101000a900460ff165b8061072f575061072e8133612793565b5b8061076557508073ffffffffffffffffffffffffffffffffffffffff163373ffffffffffffffffffffffffffffffffffffffff16145b806107bb575060008054906101000a900473ffffffffffffffffffffffffffffffffffffffff1673ffffffffffffffffffffffffffffffffffffffff163373ffffffffffffffffffffffffffffffffffffffff16145b6107fa576040517f08c379a00000000000000000000000000000000000000000000000000000000081526004016107f190613152565b60405180910390fd5b6000600160008573ffffffffffffffffffffffffffffffffffffffff1673ffffffffffffffffffffffffffffffffffffffff16815260200190815260200160002060000154905060008167ffffffffffffffff81111561085d5761085c612ce3565b5b60405190808252806020026020018201604052801561089057816020015b606081526020019060019003908161087b5790505b50905060005b828110156109a557600260008773ffffffffffffffffffffffffffffffffffffffff1673ffffffffffffffffffffffffffffffffffffffff168152602001908152602001600020600082815260200190815260200160002060000180546108fc906131a1565b80601f0160208091040260200160405190810160405280929190818152602001828054610928906131a1565b80156109755780601f1061094a57610100808354040283529160200191610975565b820191906000526020600020905b81548152906001019060200180831161095857829003601f168201915b505050505082828151811061098d5761098c6131d2565b5b60200260200101819052508080600101915050610896565b50809350505050919050565b6000806000600160008673ffffffffffffffffffffffffffffffffffffffff1673ffffffffffffffffffffffffffffffffffffffff16815260200190815260200160002060030160008573ffffffffffffffffffffffffffffffffffffffff1673ffffffffffffffffffffffffffffffffffffffff16815260200190815260200160002054905060008082118015610a4857504282115b905080829350935050509250929050565b6000600160003373ffffffffffffffffffffffffffffffffffffffff1673ffffffffffffffffffffffffffffffffffffffff16815260200190815260200160002060030160008373ffffffffffffffffffffffffffffffffffffffff1673ffffffffffffffffffffffffffffffffffffffff1681526020019081526020016000205411610b1b576040517f08c379a0000000000000000000000000000000000000000000000000000000008152600401610b129061324d565b60405180910390fd5b600160003373ffffffffffffffffffffffffffffffffffffffff1673ffffffffffffffffffffffffffffffffffffffff16815260200190815260200160002060030160008273ffffffffffffffffffffffffffffffffffffffff1673ffffffffffffffffffffffffffffffffffffffff168152602001908152602001600020600090558073ffffffffffffffffffffffffffffffffffffffff163373ffffffffffffffffffffffffffffffffffffffff167f4b7247c850fcd0db2094af94f26d198d7aab5049816e201f7ebca620765bc24d60405160405180910390a350565b606033600160008273ffffffffffffffffffffffffffffffffffffffff1673ffffffffffffffffffffffffffffffffffffffff16815260200190815260200160002060010160003373ffffffffffffffffffffffffffffffffffffffff1673ffffffffffffffffffffffffffffffffffffffff16815260200190815260200160002060009054906101000a900460ff1680610d1f5750600160008273ffffffffffffffffffffffffffffffffffffffff1673ffffffffffffffffffffffffffffffffffffffff16815260200190815260200160002060020160003373ffffffffffffffffffffffffffffffffffffffff1673ffffffffffffffffffffffffffffffffffffffff16815260200190815260200160002060009054906101000a900460ff165b80610d305750610d2f8133612793565b5b80610d6657508073ffffffffffffffffffffffffffffffffffffffff163373ffffffffffffffffffffffffffffffffffffffff16145b80610dbc575060008054906101000a900473ffffffffffffffffffffffffffffffffffffffff1673ffffffffffffffffffffffffffffffffffffffff163373ffffffffffffffffffffffffffffffffffffffff16145b610dfb576040517f08c379a0000000000000000000000000000000000000000000000000000000008152600401610df290613152565b60405180910390fd5b6000600160003373ffffffffffffffffffffffffffffffffffffffff1673ffffffffffffffffffffffffffffffffffffffff16815260200190815260200160002060000154905060008167ffffffffffffffff811115610e5e57610e5d612ce3565b5b604051908082528060200260200182016040528015610e9157816020015b6060815260200190600190039081610e7c5790505b50905060005b82811015610fa657600260003373ffffffffffffffffffffffffffffffffffffffff1673ffffffffffffffffffffffffffffffffffffffff16815260200190815260200160002060008281526020019081526020016000206000018054610efd906131a1565b80601f0160208091040260200160405190810160405280929190818152602001828054610f29906131a1565b8015610f765780601f10610f4b57610100808354040283529160200191610f76565b820191906000526020600020905b815481529060010190602001808311610f5957829003601f168201915b5050505050828281518110610f8e57610f8d6131d2565b5b60200260200101819052508080600101915050610e97565b5080935050505090565b600073ffffffffffffffffffffffffffffffffffffffff168173ffffffffffffffffffffffffffffffffffffffff160361101f576040517f08c379a000000000000000000000000000000000000000000000000000000000815260040161101690613054565b60405180910390fd5b60006170804261102f919061329c565b905080600160003373ffffffffffffffffffffffffffffffffffffffff1673ffffffffffffffffffffffffffffffffffffffff16815260200190815260200160002060030160008473ffffffffffffffffffffffffffffffffffffffff1673ffffffffffffffffffffffffffffffffffffffff168152602001908152602001600020819055508173ffffffffffffffffffffffffffffffffffffffff163373ffffffffffffffffffffffffffffffffffffffff167f7f396d7d4e43efaad1ff6b777a01497738f5940678e544e0d5b3437696d1f0d48360405161111291906128e8565b60405180910390a35050565b606081600160008273ffffffffffffffffffffffffffffffffffffffff1673ffffffffffffffffffffffffffffffffffffffff16815260200190815260200160002060010160003373ffffffffffffffffffffffffffffffffffffffff1673ffffffffffffffffffffffffffffffffffffffff16815260200190815260200160002060009054906101000a900460ff16806112425750600160008273ffffffffffffffffffffffffffffffffffffffff1673ffffffffffffffffffffffffffffffffffffffff16815260200190815260200160002060020160003373ffffffffffffffffffffffffffffffffffffffff1673ffffffffffffffffffffffffffffffffffffffff16815260200190815260200160002060009054906101000a900460ff165b8061125357506112528133612793565b5b8061128957508073ffffffffffffffffffffffffffffffffffffffff163373ffffffffffffffffffffffffffffffffffffffff16145b806112df575060008054906101000a900473ffffffffffffffffffffffffffffffffffffffff1673ffffffffffffffffffffffffffffffffffffffff163373ffffffffffffffffffffffffffffffffffffffff16145b61131e576040517f08c379a000000000000000000000000000000000000000000000000000000000815260040161131590613152565b60405180910390fd5b600160008473ffffffffffffffffffffffffffffffffffffffff1673ffffffffffffffffffffffffffffffffffffffff1681526020019081526020016000206004018054806020026020016040519081016040528092919081815260200182805480156113e057602002820191906000526020600020905b8160009054906101000a900473ffffffffffffffffffffffffffffffffffffffff1673ffffffffffffffffffffffffffffffffffffffff1681526020019060010190808311611396575b5050505050915050919050565b60026020528160005260406000206020528060005260406000206000915091505080600001805461141d906131a1565b80601f0160208091040260200160405190810160405280929190818152602001828054611449906131a1565b80156114965780601f1061146b57610100808354040283529160200191611496565b820191906000526020600020905b81548152906001019060200180831161147957829003601f168201915b5050505050908060010154908060020160009054906101000a900473ffffffffffffffffffffffffffffffffffffffff16905083565b33600160008273ffffffffffffffffffffffffffffffffffffffff1673ffffffffffffffffffffffffffffffffffffffff16815260200190815260200160002060010160003373ffffffffffffffffffffffffffffffffffffffff1673ffffffffffffffffffffffffffffffffffffffff16815260200190815260200160002060009054906101000a900460ff16806115ee5750600160008273ffffffffffffffffffffffffffffffffffffffff1673ffffffffffffffffffffffffffffffffffffffff16815260200190815260200160002060020160003373ffffffffffffffffffffffffffffffffffffffff1673ffffffffffffffffffffffffffffffffffffffff16815260200190815260200160002060009054906101000a900460ff165b806115ff57506115fe8133612793565b5b8061163557508073ffffffffffffffffffffffffffffffffffffffff163373ffffffffffffffffffffffffffffffffffffffff16145b8061168b575060008054906101000a900473ffffffffffffffffffffffffffffffffffffffff1673ffffffffffffffffffffffffffffffffffffffff163373ffffffffffffffffffffffffffffffffffffffff16145b6116ca576040517f08c379a00000000000000000000000000000000000000000000000000000000081526004016116c190613152565b60405180910390fd5b600160003373ffffffffffffffffffffffffffffffffffffffff1673ffffffffffffffffffffffffffffffffffffffff16815260200190815260200160002060010160008373ffffffffffffffffffffffffffffffffffffffff1673ffffffffffffffffffffffffffffffffffffffff16815260200190815260200160002060009054906101000a900460ff16611796576040517f08c379a000000000000000000000000000000000000000000000000000000000815260040161178d9061331c565b60405180910390fd5b6000600160003373ffffffffffffffffffffffffffffffffffffffff1673ffffffffffffffffffffffffffffffffffffffff16815260200190815260200160002060010160008473ffffffffffffffffffffffffffffffffffffffff1673ffffffffffffffffffffffffffffffffffffffff16815260200190815260200160002060006101000a81548160ff02191690831515021790555060005b600160003373ffffffffffffffffffffffffffffffffffffffff1673ffffffffffffffffffffffffffffffffffffffff16815260200190815260200160002060040180549050811015611b33578273ffffffffffffffffffffffffffffffffffffffff16600160003373ffffffffffffffffffffffffffffffffffffffff1673ffffffffffffffffffffffffffffffffffffffff16815260200190815260200160002060040182815481106118e9576118e86131d2565b5b9060005260206000200160009054906101000a900473ffffffffffffffffffffffffffffffffffffffff1673ffffffffffffffffffffffffffffffffffffffff1603611b2657600160003373ffffffffffffffffffffffffffffffffffffffff1673ffffffffffffffffffffffffffffffffffffffff16815260200190815260200160002060040160018060003373ffffffffffffffffffffffffffffffffffffffff1673ffffffffffffffffffffffffffffffffffffffff168152602001908152602001600020600401805490506119c2919061333c565b815481106119d3576119d26131d2565b5b9060005260206000200160009054906101000a900473ffffffffffffffffffffffffffffffffffffffff16600160003373ffffffffffffffffffffffffffffffffffffffff1673ffffffffffffffffffffffffffffffffffffffff1681526020019081526020016000206004018281548110611a5257611a516131d2565b5b9060005260206000200160006101000a81548173ffffffffffffffffffffffffffffffffffffffff021916908373ffffffffffffffffffffffffffffffffffffffff160217905550600160003373ffffffffffffffffffffffffffffffffffffffff1673ffffffffffffffffffffffffffffffffffffffff168152602001908152602001600020600401805480611aec57611aeb613370565b5b6001900381819060005260206000200160006101000a81549073ffffffffffffffffffffffffffffffffffffffff02191690559055611b33565b8080600101915050611831565b508173ffffffffffffffffffffffffffffffffffffffff163373ffffffffffffffffffffffffffffffffffffffff167f825c8be24eb0df19500f63e86c29e7d0d951e73056b889b891d85e40938d9b6e60405160405180910390a35050565b600281511015611bd7576040517f08c379a0000000000000000000000000000000000000000000000000000000008152600401611bce906133eb565b60405180910390fd5b60005b8151811015611c7957600073ffffffffffffffffffffffffffffffffffffffff16828281518110611c0e57611c0d6131d2565b5b602002602001015173ffffffffffffffffffffffffffffffffffffffff1603611c6c576040517f08c379a0000000000000000000000000000000000000000000000000000000008152600401611c6390613457565b60405180910390fd5b8080600101915050611bda565b5060018060008473ffffffffffffffffffffffffffffffffffffffff1673ffffffffffffffffffffffffffffffffffffffff16815260200190815260200160002060020160003373ffffffffffffffffffffffffffffffffffffffff1673ffffffffffffffffffffffffffffffffffffffff16815260200190815260200160002060006101000a81548160ff0219169083151502179055503373ffffffffffffffffffffffffffffffffffffffff168273ffffffffffffffffffffffffffffffffffffffff167f75ad06d0d9be353fc3db518c0be111d31a4d7b4dd71dd4f1870e76b96cd4bdef60405160405180910390a35050565b60008054906101000a900473ffffffffffffffffffffffffffffffffffffffff1681565b33600160008273ffffffffffffffffffffffffffffffffffffffff1673ffffffffffffffffffffffffffffffffffffffff16815260200190815260200160002060010160003373ffffffffffffffffffffffffffffffffffffffff1673ffffffffffffffffffffffffffffffffffffffff16815260200190815260200160002060009054906101000a900460ff1680611eb55750600160008273ffffffffffffffffffffffffffffffffffffffff1673ffffffffffffffffffffffffffffffffffffffff16815260200190815260200160002060020160003373ffffffffffffffffffffffffffffffffffffffff1673ffffffffffffffffffffffffffffffffffffffff16815260200190815260200160002060009054906101000a900460ff165b80611ec65750611ec58133612793565b5b80611efc57508073ffffffffffffffffffffffffffffffffffffffff163373ffffffffffffffffffffffffffffffffffffffff16145b80611f52575060008054906101000a900473ffffffffffffffffffffffffffffffffffffffff1673ffffffffffffffffffffffffffffffffffffffff163373ffffffffffffffffffffffffffffffffffffffff16145b611f91576040517f08c379a0000000000000000000000000000000000000000000000000000000008152600401611f8890613152565b60405180910390fd5b600073ffffffffffffffffffffffffffffffffffffffff168273ffffffffffffffffffffffffffffffffffffffff1603612000576040517f08c379a0000000000000000000000000000000000000000000000000000000008152600401611ff790613054565b60405180910390fd5b600160003373ffffffffffffffffffffffffffffffffffffffff1673ffffffffffffffffffffffffffffffffffffffff16815260200190815260200160002060020160008373ffffffffffffffffffffffffffffffffffffffff1673ffffffffffffffffffffffffffffffffffffffff16815260200190815260200160002060009054906101000a900460ff16156120cd576040517f08c379a00000000000000000000000000000000000000000000000000000000081526004016120c4906134e9565b60405180910390fd5b60018060003373ffffffffffffffffffffffffffffffffffffffff1673ffffffffffffffffffffffffffffffffffffffff16815260200190815260200160002060020160008473ffffffffffffffffffffffffffffffffffffffff1673ffffffffffffffffffffffffffffffffffffffff16815260200190815260200160002060006101000a81548160ff0219169083151502179055508173ffffffffffffffffffffffffffffffffffffffff163373ffffffffffffffffffffffffffffffffffffffff167f75ad06d0d9be353fc3db518c0be111d31a4d7b4dd71dd4f1870e76b96cd4bdef60405160405180910390a35050565b81600160008273ffffffffffffffffffffffffffffffffffffffff1673ffffffffffffffffffffffffffffffffffffffff16815260200190815260200160002060010160003373ffffffffffffffffffffffffffffffffffffffff1673ffffffffffffffffffffffffffffffffffffffff16815260200190815260200160002060009054906101000a900460ff16806122e45750600160008273ffffffffffffffffffffffffffffffffffffffff1673ffffffffffffffffffffffffffffffffffffffff16815260200190815260200160002060020160003373ffffffffffffffffffffffffffffffffffffffff1673ffffffffffffffffffffffffffffffffffffffff16815260200190815260200160002060009054906101000a900460ff165b806122f557506122f48133612793565b5b8061232b57508073ffffffffffffffffffffffffffffffffffffffff163373ffffffffffffffffffffffffffffffffffffffff16145b80612381575060008054906101000a900473ffffffffffffffffffffffffffffffffffffffff1673ffffffffffffffffffffffffffffffffffffffff163373ffffffffffffffffffffffffffffffffffffffff16145b6123c0576040517f08c379a00000000000000000000000000000000000000000000000000000000081526004016123b790613152565b60405180910390fd5b6000600160008573ffffffffffffffffffffffffffffffffffffffff1673ffffffffffffffffffffffffffffffffffffffff16815260200190815260200160002060000154905060405180606001604052808481526020014281526020013373ffffffffffffffffffffffffffffffffffffffff16815250600260008673ffffffffffffffffffffffffffffffffffffffff1673ffffffffffffffffffffffffffffffffffffffff1681526020019081526020016000206000838152602001908152602001600020600082015181600001908161249d91906136b5565b506020820151816001015560408201518160020160006101000a81548173ffffffffffffffffffffffffffffffffffffffff021916908373ffffffffffffffffffffffffffffffffffffffff160217905550905050600160008573ffffffffffffffffffffffffffffffffffffffff1673ffffffffffffffffffffffffffffffffffffffff168152602001908152602001600020600001600081548092919061254590613787565b91905055503373ffffffffffffffffffffffffffffffffffffffff168473ffffffffffffffffffffffffffffffffffffffff167fb30769f0089c5a40a529436f45e120ad8232a93018848e438aa84cbb7cd39586836040516125a791906128e8565b60405180910390a350505050565b6000600160003373ffffffffffffffffffffffffffffffffffffffff1673ffffffffffffffffffffffffffffffffffffffff16815260200190815260200160002060000154905060405180606001604052808381526020014281526020013373ffffffffffffffffffffffffffffffffffffffff16815250600260003373ffffffffffffffffffffffffffffffffffffffff1673ffffffffffffffffffffffffffffffffffffffff1681526020019081526020016000206000838152602001908152602001600020600082015181600001908161269291906136b5565b506020820151816001015560408201518160020160006101000a81548173ffffffffffffffffffffffffffffffffffffffff021916908373ffffffffffffffffffffffffffffffffffffffff160217905550905050600160003373ffffffffffffffffffffffffffffffffffffffff1673ffffffffffffffffffffffffffffffffffffffff168152602001908152602001600020600001600081548092919061273a90613787565b91905055503373ffffffffffffffffffffffffffffffffffffffff167f26b49ae4df0ae8531f707cfef53e4d810ca556d6f54a4281385c19f27896c2d082426040516127879291906137cf565b60405180910390a25050565b600080600160008573ffffffffffffffffffffffffffffffffffffffff1673ffffffffffffffffffffffffffffffffffffffff16815260200190815260200160002060030160008473ffffffffffffffffffffffffffffffffffffffff1673ffffffffffffffffffffffffffffffffffffffff16815260200190815260200160002054905060008111801561282757504281115b91505092915050565b6000604051905090565b600080fd5b600080fd5b600073ffffffffffffffffffffffffffffffffffffffff82169050919050565b600061286f82612844565b9050919050565b61287f81612864565b811461288a57600080fd5b50565b60008135905061289c81612876565b92915050565b6000602082840312156128b8576128b761283a565b5b60006128c68482850161288d565b91505092915050565b6000819050919050565b6128e2816128cf565b82525050565b60006020820190506128fd60008301846128d9565b92915050565b600081519050919050565b600082825260208201905092915050565b6000819050602082019050919050565b600081519050919050565b600082825260208201905092915050565b60005b8381101561296957808201518184015260208101905061294e565b60008484015250505050565b6000601f19601f8301169050919050565b60006129918261292f565b61299b818561293a565b93506129ab81856020860161294b565b6129b481612975565b840191505092915050565b60006129cb8383612986565b905092915050565b6000602082019050919050565b60006129eb82612903565b6129f5818561290e565b935083602082028501612a078561291f565b8060005b85811015612a435784840389528151612a2485826129bf565b9450612a2f836129d3565b925060208a01995050600181019050612a0b565b50829750879550505050505092915050565b60006020820190508181036000830152612a6f81846129e0565b905092915050565b60008060408385031215612a8e57612a8d61283a565b5b6000612a9c8582860161288d565b9250506020612aad8582860161288d565b9150509250929050565b60008115159050919050565b612acc81612ab7565b82525050565b6000604082019050612ae76000830185612ac3565b612af460208301846128d9565b9392505050565b600081519050919050565b600082825260208201905092915050565b6000819050602082019050919050565b612b3081612864565b82525050565b6000612b428383612b27565b60208301905092915050565b6000602082019050919050565b6000612b6682612afb565b612b708185612b06565b9350612b7b83612b17565b8060005b83811015612bac578151612b938882612b36565b9750612b9e83612b4e565b925050600181019050612b7f565b5085935050505092915050565b60006020820190508181036000830152612bd38184612b5b565b905092915050565b612be4816128cf565b8114612bef57600080fd5b50565b600081359050612c0181612bdb565b92915050565b60008060408385031215612c1e57612c1d61283a565b5b6000612c2c8582860161288d565b9250506020612c3d85828601612bf2565b9150509250929050565b600082825260208201905092915050565b6000612c638261292f565b612c6d8185612c47565b9350612c7d81856020860161294b565b612c8681612975565b840191505092915050565b612c9a81612864565b82525050565b60006060820190508181036000830152612cba8186612c58565b9050612cc960208301856128d9565b612cd66040830184612c91565b949350505050565b600080fd5b7f4e487b7100000000000000000000000000000000000000000000000000000000600052604160045260246000fd5b612d1b82612975565b810181811067ffffffffffffffff82111715612d3a57612d39612ce3565b5b80604052505050565b6000612d4d612830565b9050612d598282612d12565b919050565b600067ffffffffffffffff821115612d7957612d78612ce3565b5b602082029050602081019050919050565b600080fd5b6000612da2612d9d84612d5e565b612d43565b90508083825260208201905060208402830185811115612dc557612dc4612d8a565b5b835b81811015612dee5780612dda888261288d565b845260208401935050602081019050612dc7565b5050509392505050565b600082601f830112612e0d57612e0c612cde565b5b8135612e1d848260208601612d8f565b91505092915050565b60008060408385031215612e3d57612e3c61283a565b5b6000612e4b8582860161288d565b925050602083013567ffffffffffffffff811115612e6c57612e6b61283f565b5b612e7885828601612df8565b9150509250929050565b6000602082019050612e976000830184612c91565b92915050565b600080fd5b600067ffffffffffffffff821115612ebd57612ebc612ce3565b5b612ec682612975565b9050602081019050919050565b82818337600083830152505050565b6000612ef5612ef084612ea2565b612d43565b905082815260208101848484011115612f1157612f10612e9d565b5b612f1c848285612ed3565b509392505050565b600082601f830112612f3957612f38612cde565b5b8135612f49848260208601612ee2565b91505092915050565b60008060408385031215612f6957612f6861283a565b5b6000612f778582860161288d565b925050602083013567ffffffffffffffff811115612f9857612f9761283f565b5b612fa485828601612f24565b9150509250929050565b600060208284031215612fc457612fc361283a565b5b600082013567ffffffffffffffff811115612fe257612fe161283f565b5b612fee84828501612f24565b91505092915050565b600082825260208201905092915050565b7f496e76616c696420616464726573730000000000000000000000000000000000600082015250565b600061303e600f83612ff7565b915061304982613008565b602082019050919050565b6000602082019050818103600083015261306d81613031565b9050919050565b7f456e7469747920616c7265616479206861732061636365737300000000000000600082015250565b60006130aa601983612ff7565b91506130b582613074565b602082019050919050565b600060208201905081810360008301526130d98161309d565b9050919050565b7f4e6f7420617574686f72697a656420746f20616363657373207468697320706160008201527f7469656e742773207265636f7264730000000000000000000000000000000000602082015250565b600061313c602f83612ff7565b9150613147826130e0565b604082019050919050565b6000602082019050818103600083015261316b8161312f565b9050919050565b7f4e487b7100000000000000000000000000000000000000000000000000000000600052602260045260246000fd5b600060028204905060018216806131b957607f821691505b6020821081036131cc576131cb613172565b5b50919050565b7f4e487b7100000000000000000000000000000000000000000000000000000000600052603260045260246000fd5b7f4167656e7420646f6573206e6f74206861766520616363657373000000000000600082015250565b6000613237601a83612ff7565b915061324282613201565b602082019050919050565b600060208201905081810360008301526132668161322a565b9050919050565b7f4e487b7100000000000000000000000000000000000000000000000000000000600052601160045260246000fd5b60006132a7826128cf565b91506132b2836128cf565b92508282019050808211156132ca576132c961326d565b5b92915050565b7f456e7469747920646f6573206e6f742068617665206163636573730000000000600082015250565b6000613306601b83612ff7565b9150613311826132d0565b602082019050919050565b60006020820190508181036000830152613335816132f9565b9050919050565b6000613347826128cf565b9150613352836128cf565b925082820390508181111561336a5761336961326d565b5b92915050565b7f4e487b7100000000000000000000000000000000000000000000000000000000600052603160045260246000fd5b7f4174206c65617374203220617070726f76657273207265717569726564000000600082015250565b60006133d5601d83612ff7565b91506133e08261339f565b602082019050919050565b60006020820190508181036000830152613404816133c8565b9050919050565b7f496e76616c696420617070726f76657220616464726573730000000000000000600082015250565b6000613441601883612ff7565b915061344c8261340b565b602082019050919050565b6000602082019050818103600083015261347081613434565b9050919050565b7f456e7469747920616c72656164792068617320656d657267656e63792061636360008201527f6573730000000000000000000000000000000000000000000000000000000000602082015250565b60006134d3602383612ff7565b91506134de82613477565b604082019050919050565b60006020820190508181036000830152613502816134c6565b9050919050565b60008190508160005260206000209050919050565b60006020601f8301049050919050565b600082821b905092915050565b60006008830261356b7fffffffffffffffffffffffffffffffffffffffffffffffffffffffffffffffff8261352e565b613575868361352e565b95508019841693508086168417925050509392505050565b6000819050919050565b60006135b26135ad6135a8846128cf565b61358d565b6128cf565b9050919050565b6000819050919050565b6135cc83613597565b6135e06135d8826135b9565b84845461353b565b825550505050565b600090565b6135f56135e8565b6136008184846135c3565b505050565b5b81811015613624576136196000826135ed565b600181019050613606565b5050565b601f8211156136695761363a81613509565b6136438461351e565b81016020851015613652578190505b61366661365e8561351e565b830182613605565b50505b505050565b600082821c905092915050565b600061368c6000198460080261366e565b1980831691505092915050565b60006136a5838361367b565b9150826002028217905092915050565b6136be8261292f565b67ffffffffffffffff8111156136d7576136d6612ce3565b5b6136e182546131a1565b6136ec828285613628565b600060209050601f83116001811461371f576000841561370d578287015190505b6137178582613699565b86555061377f565b601f19841661372d86613509565b60005b8281101561375557848901518255600182019150602085019450602081019050613730565b86831015613772578489015161376e601f89168261367b565b8355505b6001600288020188555050505b505050505050565b6000613792826128cf565b91507fffffffffffffffffffffffffffffffffffffffffffffffffffffffffffffffff82036137c4576137c361326d565b5b600182019050919050565b60006040820190506137e460008301856128d9565b6137f160208301846128d9565b939250505056fea264697066735822122050e05070624a7f0260b6e6480ec521cc29e835e3ed34b95725cc31c004d5db3864736f6c634300081c0033",
  "linkReferences": {},
  "deployedLinkReferences": {}
}