{
  "_format": "hh-sol-artifact-1",
  "contractName": "PatientManagement",
  "sourceName": "contracts/PatientManagement.sol",
  "abi": [
    {
      "inputs": [],
      "stateMutability": "nonpayable",
      "type": "constructor"
    },
    {
      "anonymous": false,
      "inputs": [
        {
          "indexed": true,
          "internalType": "address",
          "name": "patient",
          "type": "address"
        },
        {
          "indexed": true,
          "internalType": "address",
          "name": "entity",
          "type": "address"
        }
      ],
      "name": "AccessGranted",
      "type": "event"
    },
    {
      "anonymous": false,
      "inputs": [
        {
          "indexed": true,
          "internalType": "address",
          "name": "patient",
          "type": "address"
        },
        {
          "indexed": true,
          "internalType": "address",
          "name": "entity",
          "type": "address"
        }
      ],
      "name": "AccessRevoked",
      "type": "event"
    },
    {
      "anonymous": false,
      "inputs": [
        {
          "indexed": true,
          "internalType": "address",
          "name": "patient",
          "type": "address"
        },
        {
          "indexed": true,
          "internalType": "address",
          "name": "entity",
          "type": "address"
        }
      ],
      "name": "EmergencyAccessGranted",
      "type": "event"
    },
    {
      "anonymous": false,
      "inputs": [
        {
          "indexed": true,
          "internalType": "address",
          "name": "patient",
          "type": "address"
        },
        {
          "indexed": false,
          "internalType": "uint256",
          "name": "recordId",
          "type": "uint256"
        },
        {
          "indexed": false,
          "internalType": "uint256",
          "name": "timestamp",
          "type": "uint256"
        }
      ],
      "name": "RecordUploaded",
      "type": "event"
    },
    {
      "anonymous": false,
      "inputs": [
        {
          "indexed": true,
          "internalType": "address",
          "name": "patient",
          "type": "address"
        },
        {
          "indexed": true,
          "internalType": "address",
          "name": "doctor",
          "type": "address"
        },
        {
          "indexed": false,
          "internalType": "uint256",
          "name": "recordId",
          "type": "uint256"
        }
      ],
      "name": "ReportAdded",
      "type": "event"
    },
    {
      "inputs": [
        {
          "internalType": "address",
          "name": "patient",
          "type": "address"
        },
        {
          "internalType": "bytes",
          "name": "reportHash",
          "type": "bytes"
        }
      ],
      "name": "addMedicalReport",
      "outputs": [],
      "stateMutability": "nonpayable",
      "type": "function"
    },
    {
      "inputs": [
        {
          "internalType": "address",
          "name": "patient",
          "type": "address"
        }
      ],
      "name": "getAccessList",
      "outputs": [
        {
          "internalType": "address[]",
          "name": "",
          "type": "address[]"
        }
      ],
      "stateMutability": "view",
      "type": "function"
    },
    {
      "inputs": [
        {
          "internalType": "address",
          "name": "entity",
          "type": "address"
        }
      ],
      "name": "grantAccess",
      "outputs": [],
      "stateMutability": "nonpayable",
      "type": "function"
    },
    {
      "inputs": [
        {
          "internalType": "address",
          "name": "entity",
          "type": "address"
        }
      ],
      "name": "grantEmergencyAccess",
      "outputs": [],
      "stateMutability": "nonpayable",
      "type": "function"
    },
    {
      "inputs": [
        {
          "internalType": "address",
          "name": "patient",
          "type": "address"
        },
        {
          "internalType": "address[]",
          "name": "approvers",
          "type": "address[]"
        }
      ],
      "name": "multiSigUnlock",
      "outputs": [],
      "stateMutability": "nonpayable",
      "type": "function"
    },
    {
      "inputs": [],
      "name": "owner",
      "outputs": [
        {
          "internalType": "address",
          "name": "",
          "type": "address"
        }
      ],
      "stateMutability": "view",
      "type": "function"
    },
    {
      "inputs": [
        {
          "internalType": "address",
          "name": "",
          "type": "address"
        }
      ],
      "name": "patients",
      "outputs": [
        {
          "internalType": "bool",
          "name": "exists",
          "type": "bool"
        },
        {
          "internalType": "uint256",
          "name": "recordCount",
          "type": "uint256"
        }
      ],
      "stateMutability": "view",
      "type": "function"
    },
    {
      "inputs": [
        {
          "internalType": "address",
          "name": "",
          "type": "address"
        },
        {
          "internalType": "uint256",
          "name": "",
          "type": "uint256"
        }
      ],
      "name": "records",
      "outputs": [
        {
          "internalType": "bytes",
          "name": "recordHash",
          "type": "bytes"
        },
        {
          "internalType": "uint256",
          "name": "timestamp",
          "type": "uint256"
        },
        {
          "internalType": "address",
          "name": "uploader",
          "type": "address"
        }
      ],
      "stateMutability": "view",
      "type": "function"
    },
    {
      "inputs": [],
      "name": "registerPatient",
      "outputs": [],
      "stateMutability": "nonpayable",
      "type": "function"
    },
    {
      "inputs": [
        {
          "internalType": "address",
          "name": "entity",
          "type": "address"
        }
      ],
      "name": "revokeAccess",
      "outputs": [],
      "stateMutability": "nonpayable",
      "type": "function"
    },
    {
      "inputs": [
        {
          "internalType": "bytes",
          "name": "recordHash",
          "type": "bytes"
        }
      ],
      "name": "uploadRecord",
      "outputs": [],
      "stateMutability": "nonpayable",
      "type": "function"
    },
    {
      "inputs": [
        {
          "internalType": "address",
          "name": "patient",
          "type": "address"
        }
      ],
      "name": "viewPatientRecords",
      "outputs": [
        {
          "internalType": "bytes[]",
          "name": "",
          "type": "bytes[]"
        }
      ],
      "stateMutability": "view",
      "type": "function"
    },
    {
      "inputs": [],
      "name": "viewRecords",
      "outputs": [
        {
          "internalType": "bytes[]",
          "name": "",
          "type": "bytes[]"
        }
      ],
      "stateMutability": "view",
      "type": "function"
    }
  ],
  "bytecode": "0x6080604052348015600f57600080fd5b50336000806101000a81548173ffffffffffffffffffffffffffffffffffffffff021916908373ffffffffffffffffffffffffffffffffffffffff1602179055506133038061005f6000396000f3fe608060405234801561001057600080fd5b50600436106100cf5760003560e01c806382a6c0ac1161008c5780638da5cb5b116100665780638da5cb5b14610213578063aabc428014610231578063da01581c1461024d578063dd5751c414610269576100cf565b806382a6c0ac146101a957806385e68531146101db5780638d242b71146101f7576100cf565b80630869cfbc146100d45780630ae5e73914610105578063122dbe141461012157806370c104451461015157806380efcb3c1461016f578063822d38851461019f575b600080fd5b6100ee60048036038101906100e99190612359565b610285565b6040516100fc9291906123ba565b60405180910390f35b61011f600480360381019061011a9190612359565b6102b6565b005b61013b60048036038101906101369190612359565b61066e565b6040516101489190612535565b60405180910390f35b610159610a14565b6040516101669190612535565b60405180910390f35b61018960048036038101906101849190612359565b610caf565b6040516101969190612615565b60405180910390f35b6101a7610f6d565b005b6101c360048036038101906101be9190612663565b6110a1565b6040516101d2939291906126fc565b60405180910390f35b6101f560048036038101906101f09190612359565b611180565b005b610211600480360381019061020c9190612882565b61172c565b005b61021b611909565b60405161022891906128de565b60405180910390f35b61024b60048036038101906102469190612359565b61192d565b005b610267600480360381019061026291906129ae565b611c42565b005b610283600480360381019061027e9190612a0a565b612024565b005b60016020528060005260406000206000915090508060000160009054906101000a900460ff16908060010154905082565b600160003373ffffffffffffffffffffffffffffffffffffffff1673ffffffffffffffffffffffffffffffffffffffff16815260200190815260200160002060000160009054906101000a900460ff168061035c575060008054906101000a900473ffffffffffffffffffffffffffffffffffffffff1673ffffffffffffffffffffffffffffffffffffffff163373ffffffffffffffffffffffffffffffffffffffff16145b61039b576040517f08c379a000000000000000000000000000000000000000000000000000000000815260040161039290612ad6565b60405180910390fd5b600073ffffffffffffffffffffffffffffffffffffffff168173ffffffffffffffffffffffffffffffffffffffff160361040a576040517f08c379a000000000000000000000000000000000000000000000000000000000815260040161040190612b42565b60405180910390fd5b600160003373ffffffffffffffffffffffffffffffffffffffff1673ffffffffffffffffffffffffffffffffffffffff16815260200190815260200160002060020160008273ffffffffffffffffffffffffffffffffffffffff1673ffffffffffffffffffffffffffffffffffffffff16815260200190815260200160002060009054906101000a900460ff16156104d7576040517f08c379a00000000000000000000000000000000000000000000000000000000081526004016104ce90612bae565b60405180910390fd5b60018060003373ffffffffffffffffffffffffffffffffffffffff1673ffffffffffffffffffffffffffffffffffffffff16815260200190815260200160002060020160008373ffffffffffffffffffffffffffffffffffffffff1673ffffffffffffffffffffffffffffffffffffffff16815260200190815260200160002060006101000a81548160ff021916908315150217905550600160003373ffffffffffffffffffffffffffffffffffffffff1673ffffffffffffffffffffffffffffffffffffffff168152602001908152602001600020600401819080600181540180825580915050600190039060005260206000200160009091909190916101000a81548173ffffffffffffffffffffffffffffffffffffffff021916908373ffffffffffffffffffffffffffffffffffffffff1602179055508073ffffffffffffffffffffffffffffffffffffffff163373ffffffffffffffffffffffffffffffffffffffff167f9f520b3bfc56d06f7065d10b4683b3f57ac8895d5026cd176dee95ce1454cb8d60405160405180910390a350565b606081600160008273ffffffffffffffffffffffffffffffffffffffff1673ffffffffffffffffffffffffffffffffffffffff16815260200190815260200160002060020160003373ffffffffffffffffffffffffffffffffffffffff1673ffffffffffffffffffffffffffffffffffffffff16815260200190815260200160002060009054906101000a900460ff16806107925750600160008273ffffffffffffffffffffffffffffffffffffffff1673ffffffffffffffffffffffffffffffffffffffff16815260200190815260200160002060030160003373ffffffffffffffffffffffffffffffffffffffff1673ffffffffffffffffffffffffffffffffffffffff16815260200190815260200160002060009054906101000a900460ff165b806107c857508073ffffffffffffffffffffffffffffffffffffffff163373ffffffffffffffffffffffffffffffffffffffff16145b8061081e575060008054906101000a900473ffffffffffffffffffffffffffffffffffffffff1673ffffffffffffffffffffffffffffffffffffffff163373ffffffffffffffffffffffffffffffffffffffff16145b61085d576040517f08c379a000000000000000000000000000000000000000000000000000000000815260040161085490612c40565b60405180910390fd5b6000600160008573ffffffffffffffffffffffffffffffffffffffff1673ffffffffffffffffffffffffffffffffffffffff16815260200190815260200160002060010154905060008167ffffffffffffffff8111156108c0576108bf61273f565b5b6040519080825280602002602001820160405280156108f357816020015b60608152602001906001900390816108de5790505b50905060005b82811015610a0857600260008773ffffffffffffffffffffffffffffffffffffffff1673ffffffffffffffffffffffffffffffffffffffff1681526020019081526020016000206000828152602001908152602001600020600001805461095f90612c8f565b80601f016020809104026020016040519081016040528092919081815260200182805461098b90612c8f565b80156109d85780601f106109ad576101008083540402835291602001916109d8565b820191906000526020600020905b8154815290600101906020018083116109bb57829003601f168201915b50505050508282815181106109f0576109ef612cc0565b5b602002602001018190525080806001019150506108f9565b50809350505050919050565b6060600160003373ffffffffffffffffffffffffffffffffffffffff1673ffffffffffffffffffffffffffffffffffffffff16815260200190815260200160002060000160009054906101000a900460ff1680610abc575060008054906101000a900473ffffffffffffffffffffffffffffffffffffffff1673ffffffffffffffffffffffffffffffffffffffff163373ffffffffffffffffffffffffffffffffffffffff16145b610afb576040517f08c379a0000000000000000000000000000000000000000000000000000000008152600401610af290612ad6565b60405180910390fd5b6000600160003373ffffffffffffffffffffffffffffffffffffffff1673ffffffffffffffffffffffffffffffffffffffff16815260200190815260200160002060010154905060008167ffffffffffffffff811115610b5e57610b5d61273f565b5b604051908082528060200260200182016040528015610b9157816020015b6060815260200190600190039081610b7c5790505b50905060005b82811015610ca657600260003373ffffffffffffffffffffffffffffffffffffffff1673ffffffffffffffffffffffffffffffffffffffff16815260200190815260200160002060008281526020019081526020016000206000018054610bfd90612c8f565b80601f0160208091040260200160405190810160405280929190818152602001828054610c2990612c8f565b8015610c765780601f10610c4b57610100808354040283529160200191610c76565b820191906000526020600020905b815481529060010190602001808311610c5957829003601f168201915b5050505050828281518110610c8e57610c8d612cc0565b5b60200260200101819052508080600101915050610b97565b50809250505090565b606081600160008273ffffffffffffffffffffffffffffffffffffffff1673ffffffffffffffffffffffffffffffffffffffff16815260200190815260200160002060020160003373ffffffffffffffffffffffffffffffffffffffff1673ffffffffffffffffffffffffffffffffffffffff16815260200190815260200160002060009054906101000a900460ff1680610dd35750600160008273ffffffffffffffffffffffffffffffffffffffff1673ffffffffffffffffffffffffffffffffffffffff16815260200190815260200160002060030160003373ffffffffffffffffffffffffffffffffffffffff1673ffffffffffffffffffffffffffffffffffffffff16815260200190815260200160002060009054906101000a900460ff165b80610e0957508073ffffffffffffffffffffffffffffffffffffffff163373ffffffffffffffffffffffffffffffffffffffff16145b80610e5f575060008054906101000a900473ffffffffffffffffffffffffffffffffffffffff1673ffffffffffffffffffffffffffffffffffffffff163373ffffffffffffffffffffffffffffffffffffffff16145b610e9e576040517f08c379a0000000000000000000000000000000000000000000000000000000008152600401610e9590612c40565b60405180910390fd5b600160008473ffffffffffffffffffffffffffffffffffffffff1673ffffffffffffffffffffffffffffffffffffffff168152602001908152602001600020600401805480602002602001604051908101604052809291908181526020018280548015610f6057602002820191906000526020600020905b8160009054906101000a900473ffffffffffffffffffffffffffffffffffffffff1673ffffffffffffffffffffffffffffffffffffffff1681526020019060010190808311610f16575b5050505050915050919050565b600160003373ffffffffffffffffffffffffffffffffffffffff1673ffffffffffffffffffffffffffffffffffffffff16815260200190815260200160002060000160009054906101000a900460ff1615610ffd576040517f08c379a0000000000000000000000000000000000000000000000000000000008152600401610ff490612d3b565b60405180910390fd5b60018060003373ffffffffffffffffffffffffffffffffffffffff1673ffffffffffffffffffffffffffffffffffffffff16815260200190815260200160002060000160006101000a81548160ff0219169083151502179055506000600160003373ffffffffffffffffffffffffffffffffffffffff1673ffffffffffffffffffffffffffffffffffffffff16815260200190815260200160002060010181905550565b6002602052816000526040600020602052806000526040600020600091509150508060000180546110d190612c8f565b80601f01602080910402602001604051908101604052809291908181526020018280546110fd90612c8f565b801561114a5780601f1061111f5761010080835404028352916020019161114a565b820191906000526020600020905b81548152906001019060200180831161112d57829003601f168201915b5050505050908060010154908060020160009054906101000a900473ffffffffffffffffffffffffffffffffffffffff16905083565b600160003373ffffffffffffffffffffffffffffffffffffffff1673ffffffffffffffffffffffffffffffffffffffff16815260200190815260200160002060000160009054906101000a900460ff1680611226575060008054906101000a900473ffffffffffffffffffffffffffffffffffffffff1673ffffffffffffffffffffffffffffffffffffffff163373ffffffffffffffffffffffffffffffffffffffff16145b611265576040517f08c379a000000000000000000000000000000000000000000000000000000000815260040161125c90612ad6565b60405180910390fd5b600160003373ffffffffffffffffffffffffffffffffffffffff1673ffffffffffffffffffffffffffffffffffffffff16815260200190815260200160002060020160008273ffffffffffffffffffffffffffffffffffffffff1673ffffffffffffffffffffffffffffffffffffffff16815260200190815260200160002060009054906101000a900460ff16611331576040517f08c379a000000000000000000000000000000000000000000000000000000000815260040161132890612da7565b60405180910390fd5b6000600160003373ffffffffffffffffffffffffffffffffffffffff1673ffffffffffffffffffffffffffffffffffffffff16815260200190815260200160002060020160008373ffffffffffffffffffffffffffffffffffffffff1673ffffffffffffffffffffffffffffffffffffffff16815260200190815260200160002060006101000a81548160ff02191690831515021790555060005b600160003373ffffffffffffffffffffffffffffffffffffffff1673ffffffffffffffffffffffffffffffffffffffff168152602001908152602001600020600401805490508110156116ce578173ffffffffffffffffffffffffffffffffffffffff16600160003373ffffffffffffffffffffffffffffffffffffffff1673ffffffffffffffffffffffffffffffffffffffff168152602001908152602001600020600401828154811061148457611483612cc0565b5b9060005260206000200160009054906101000a900473ffffffffffffffffffffffffffffffffffffffff1673ffffffffffffffffffffffffffffffffffffffff16036116c157600160003373ffffffffffffffffffffffffffffffffffffffff1673ffffffffffffffffffffffffffffffffffffffff16815260200190815260200160002060040160018060003373ffffffffffffffffffffffffffffffffffffffff1673ffffffffffffffffffffffffffffffffffffffff1681526020019081526020016000206004018054905061155d9190612df6565b8154811061156e5761156d612cc0565b5b9060005260206000200160009054906101000a900473ffffffffffffffffffffffffffffffffffffffff16600160003373ffffffffffffffffffffffffffffffffffffffff1673ffffffffffffffffffffffffffffffffffffffff16815260200190815260200160002060040182815481106115ed576115ec612cc0565b5b9060005260206000200160006101000a81548173ffffffffffffffffffffffffffffffffffffffff021916908373ffffffffffffffffffffffffffffffffffffffff160217905550600160003373ffffffffffffffffffffffffffffffffffffffff1673ffffffffffffffffffffffffffffffffffffffff16815260200190815260200160002060040180548061168757611686612e2a565b5b6001900381819060005260206000200160006101000a81549073ffffffffffffffffffffffffffffffffffffffff021916905590556116ce565b80806001019150506113cc565b508073ffffffffffffffffffffffffffffffffffffffff163373ffffffffffffffffffffffffffffffffffffffff167f825c8be24eb0df19500f63e86c29e7d0d951e73056b889b891d85e40938d9b6e60405160405180910390a350565b600281511015611771576040517f08c379a000000000000000000000000000000000000000000000000000000000815260040161176890612ea5565b60405180910390fd5b60005b815181101561181357600073ffffffffffffffffffffffffffffffffffffffff168282815181106117a8576117a7612cc0565b5b602002602001015173ffffffffffffffffffffffffffffffffffffffff1603611806576040517f08c379a00000000000000000000000000000000000000000000000000000000081526004016117fd90612f11565b60405180910390fd5b8080600101915050611774565b5060018060008473ffffffffffffffffffffffffffffffffffffffff1673ffffffffffffffffffffffffffffffffffffffff16815260200190815260200160002060030160003373ffffffffffffffffffffffffffffffffffffffff1673ffffffffffffffffffffffffffffffffffffffff16815260200190815260200160002060006101000a81548160ff0219169083151502179055503373ffffffffffffffffffffffffffffffffffffffff168273ffffffffffffffffffffffffffffffffffffffff167f75ad06d0d9be353fc3db518c0be111d31a4d7b4dd71dd4f1870e76b96cd4bdef60405160405180910390a35050565b60008054906101000a900473ffffffffffffffffffffffffffffffffffffffff1681565b600160003373ffffffffffffffffffffffffffffffffffffffff1673ffffffffffffffffffffffffffffffffffffffff16815260200190815260200160002060000160009054906101000a900460ff16806119d3575060008054906101000a900473ffffffffffffffffffffffffffffffffffffffff1673ffffffffffffffffffffffffffffffffffffffff163373ffffffffffffffffffffffffffffffffffffffff16145b611a12576040517f08c379a0000000000000000000000000000000000000000000000000000000008152600401611a0990612ad6565b60405180910390fd5b600073ffffffffffffffffffffffffffffffffffffffff168173ffffffffffffffffffffffffffffffffffffffff1603611a81576040517f08c379a0000000000000000000000000000000000000000000000000000000008152600401611a7890612b42565b60405180910390fd5b600160003373ffffffffffffffffffffffffffffffffffffffff1673ffffffffffffffffffffffffffffffffffffffff16815260200190815260200160002060030160008273ffffffffffffffffffffffffffffffffffffffff1673ffffffffffffffffffffffffffffffffffffffff16815260200190815260200160002060009054906101000a900460ff1615611b4e576040517f08c379a0000000000000000000000000000000000000000000000000000000008152600401611b4590612fa3565b60405180910390fd5b60018060003373ffffffffffffffffffffffffffffffffffffffff1673ffffffffffffffffffffffffffffffffffffffff16815260200190815260200160002060030160008373ffffffffffffffffffffffffffffffffffffffff1673ffffffffffffffffffffffffffffffffffffffff16815260200190815260200160002060006101000a81548160ff0219169083151502179055508073ffffffffffffffffffffffffffffffffffffffff163373ffffffffffffffffffffffffffffffffffffffff167f75ad06d0d9be353fc3db518c0be111d31a4d7b4dd71dd4f1870e76b96cd4bdef60405160405180910390a350565b81600160008273ffffffffffffffffffffffffffffffffffffffff1673ffffffffffffffffffffffffffffffffffffffff16815260200190815260200160002060020160003373ffffffffffffffffffffffffffffffffffffffff1673ffffffffffffffffffffffffffffffffffffffff16815260200190815260200160002060009054906101000a900460ff1680611d645750600160008273ffffffffffffffffffffffffffffffffffffffff1673ffffffffffffffffffffffffffffffffffffffff16815260200190815260200160002060030160003373ffffffffffffffffffffffffffffffffffffffff1673ffffffffffffffffffffffffffffffffffffffff16815260200190815260200160002060009054906101000a900460ff165b80611d9a57508073ffffffffffffffffffffffffffffffffffffffff163373ffffffffffffffffffffffffffffffffffffffff16145b80611df0575060008054906101000a900473ffffffffffffffffffffffffffffffffffffffff1673ffffffffffffffffffffffffffffffffffffffff163373ffffffffffffffffffffffffffffffffffffffff16145b611e2f576040517f08c379a0000000000000000000000000000000000000000000000000000000008152600401611e2690612c40565b60405180910390fd5b6000600160008573ffffffffffffffffffffffffffffffffffffffff1673ffffffffffffffffffffffffffffffffffffffff16815260200190815260200160002060010154905060405180606001604052808481526020014281526020013373ffffffffffffffffffffffffffffffffffffffff16815250600260008673ffffffffffffffffffffffffffffffffffffffff1673ffffffffffffffffffffffffffffffffffffffff16815260200190815260200160002060008381526020019081526020016000206000820151816000019081611f0c919061316f565b506020820151816001015560408201518160020160006101000a81548173ffffffffffffffffffffffffffffffffffffffff021916908373ffffffffffffffffffffffffffffffffffffffff160217905550905050600160008573ffffffffffffffffffffffffffffffffffffffff1673ffffffffffffffffffffffffffffffffffffffff1681526020019081526020016000206001016000815480929190611fb490613241565b91905055503373ffffffffffffffffffffffffffffffffffffffff168473ffffffffffffffffffffffffffffffffffffffff167fb30769f0089c5a40a529436f45e120ad8232a93018848e438aa84cbb7cd39586836040516120169190613289565b60405180910390a350505050565b600160003373ffffffffffffffffffffffffffffffffffffffff1673ffffffffffffffffffffffffffffffffffffffff16815260200190815260200160002060000160009054906101000a900460ff16806120ca575060008054906101000a900473ffffffffffffffffffffffffffffffffffffffff1673ffffffffffffffffffffffffffffffffffffffff163373ffffffffffffffffffffffffffffffffffffffff16145b612109576040517f08c379a000000000000000000000000000000000000000000000000000000000815260040161210090612ad6565b60405180910390fd5b6000600160003373ffffffffffffffffffffffffffffffffffffffff1673ffffffffffffffffffffffffffffffffffffffff16815260200190815260200160002060010154905060405180606001604052808381526020014281526020013373ffffffffffffffffffffffffffffffffffffffff16815250600260003373ffffffffffffffffffffffffffffffffffffffff1673ffffffffffffffffffffffffffffffffffffffff168152602001908152602001600020600083815260200190815260200160002060008201518160000190816121e6919061316f565b506020820151816001015560408201518160020160006101000a81548173ffffffffffffffffffffffffffffffffffffffff021916908373ffffffffffffffffffffffffffffffffffffffff160217905550905050600160003373ffffffffffffffffffffffffffffffffffffffff1673ffffffffffffffffffffffffffffffffffffffff168152602001908152602001600020600101600081548092919061228e90613241565b91905055503373ffffffffffffffffffffffffffffffffffffffff167f26b49ae4df0ae8531f707cfef53e4d810ca556d6f54a4281385c19f27896c2d082426040516122db9291906132a4565b60405180910390a25050565b6000604051905090565b600080fd5b600080fd5b600073ffffffffffffffffffffffffffffffffffffffff82169050919050565b6000612326826122fb565b9050919050565b6123368161231b565b811461234157600080fd5b50565b6000813590506123538161232d565b92915050565b60006020828403121561236f5761236e6122f1565b5b600061237d84828501612344565b91505092915050565b60008115159050919050565b61239b81612386565b82525050565b6000819050919050565b6123b4816123a1565b82525050565b60006040820190506123cf6000830185612392565b6123dc60208301846123ab565b9392505050565b600081519050919050565b600082825260208201905092915050565b6000819050602082019050919050565b600081519050919050565b600082825260208201905092915050565b60005b8381101561244957808201518184015260208101905061242e565b60008484015250505050565b6000601f19601f8301169050919050565b60006124718261240f565b61247b818561241a565b935061248b81856020860161242b565b61249481612455565b840191505092915050565b60006124ab8383612466565b905092915050565b6000602082019050919050565b60006124cb826123e3565b6124d581856123ee565b9350836020820285016124e7856123ff565b8060005b858110156125235784840389528151612504858261249f565b945061250f836124b3565b925060208a019950506001810190506124eb565b50829750879550505050505092915050565b6000602082019050818103600083015261254f81846124c0565b905092915050565b600081519050919050565b600082825260208201905092915050565b6000819050602082019050919050565b61258c8161231b565b82525050565b600061259e8383612583565b60208301905092915050565b6000602082019050919050565b60006125c282612557565b6125cc8185612562565b93506125d783612573565b8060005b838110156126085781516125ef8882612592565b97506125fa836125aa565b9250506001810190506125db565b5085935050505092915050565b6000602082019050818103600083015261262f81846125b7565b905092915050565b612640816123a1565b811461264b57600080fd5b50565b60008135905061265d81612637565b92915050565b6000806040838503121561267a576126796122f1565b5b600061268885828601612344565b92505060206126998582860161264e565b9150509250929050565b600082825260208201905092915050565b60006126bf8261240f565b6126c981856126a3565b93506126d981856020860161242b565b6126e281612455565b840191505092915050565b6126f68161231b565b82525050565b6000606082019050818103600083015261271681866126b4565b905061272560208301856123ab565b61273260408301846126ed565b949350505050565b600080fd5b7f4e487b7100000000000000000000000000000000000000000000000000000000600052604160045260246000fd5b61277782612455565b810181811067ffffffffffffffff821117156127965761279561273f565b5b80604052505050565b60006127a96122e7565b90506127b5828261276e565b919050565b600067ffffffffffffffff8211156127d5576127d461273f565b5b602082029050602081019050919050565b600080fd5b60006127fe6127f9846127ba565b61279f565b90508083825260208201905060208402830185811115612821576128206127e6565b5b835b8181101561284a57806128368882612344565b845260208401935050602081019050612823565b5050509392505050565b600082601f8301126128695761286861273a565b5b81356128798482602086016127eb565b91505092915050565b60008060408385031215612899576128986122f1565b5b60006128a785828601612344565b925050602083013567ffffffffffffffff8111156128c8576128c76122f6565b5b6128d485828601612854565b9150509250929050565b60006020820190506128f360008301846126ed565b92915050565b600080fd5b600067ffffffffffffffff8211156129195761291861273f565b5b61292282612455565b9050602081019050919050565b82818337600083830152505050565b600061295161294c846128fe565b61279f565b90508281526020810184848401111561296d5761296c6128f9565b5b61297884828561292f565b509392505050565b600082601f8301126129955761299461273a565b5b81356129a584826020860161293e565b91505092915050565b600080604083850312156129c5576129c46122f1565b5b60006129d385828601612344565b925050602083013567ffffffffffffffff8111156129f4576129f36122f6565b5b612a0085828601612980565b9150509250929050565b600060208284031215612a2057612a1f6122f1565b5b600082013567ffffffffffffffff811115612a3e57612a3d6122f6565b5b612a4a84828501612980565b91505092915050565b600082825260208201905092915050565b7f4f6e6c7920726567697374657265642070617469656e74732063616e2070657260008201527f666f726d207468697320616374696f6e00000000000000000000000000000000602082015250565b6000612ac0603083612a53565b9150612acb82612a64565b604082019050919050565b60006020820190508181036000830152612aef81612ab3565b9050919050565b7f496e76616c696420616464726573730000000000000000000000000000000000600082015250565b6000612b2c600f83612a53565b9150612b3782612af6565b602082019050919050565b60006020820190508181036000830152612b5b81612b1f565b9050919050565b7f456e7469747920616c7265616479206861732061636365737300000000000000600082015250565b6000612b98601983612a53565b9150612ba382612b62565b602082019050919050565b60006020820190508181036000830152612bc781612b8b565b9050919050565b7f4e6f7420617574686f72697a656420746f20616363657373207468697320706160008201527f7469656e742773207265636f7264730000000000000000000000000000000000602082015250565b6000612c2a602f83612a53565b9150612c3582612bce565b604082019050919050565b60006020820190508181036000830152612c5981612c1d565b9050919050565b7f4e487b7100000000000000000000000000000000000000000000000000000000600052602260045260246000fd5b60006002820490506001821680612ca757607f821691505b602082108103612cba57612cb9612c60565b5b50919050565b7f4e487b7100000000000000000000000000000000000000000000000000000000600052603260045260246000fd5b7f50617469656e7420616c72656164792072656769737465726564000000000000600082015250565b6000612d25601a83612a53565b9150612d3082612cef565b602082019050919050565b60006020820190508181036000830152612d5481612d18565b9050919050565b7f456e7469747920646f6573206e6f742068617665206163636573730000000000600082015250565b6000612d91601b83612a53565b9150612d9c82612d5b565b602082019050919050565b60006020820190508181036000830152612dc081612d84565b9050919050565b7f4e487b7100000000000000000000000000000000000000000000000000000000600052601160045260246000fd5b6000612e01826123a1565b9150612e0c836123a1565b9250828203905081811115612e2457612e23612dc7565b5b92915050565b7f4e487b7100000000000000000000000000000000000000000000000000000000600052603160045260246000fd5b7f4174206c65617374203220617070726f76657273207265717569726564000000600082015250565b6000612e8f601d83612a53565b9150612e9a82612e59565b602082019050919050565b60006020820190508181036000830152612ebe81612e82565b9050919050565b7f496e76616c696420617070726f76657220616464726573730000000000000000600082015250565b6000612efb601883612a53565b9150612f0682612ec5565b602082019050919050565b60006020820190508181036000830152612f2a81612eee565b9050919050565b7f456e7469747920616c72656164792068617320656d657267656e63792061636360008201527f6573730000000000000000000000000000000000000000000000000000000000602082015250565b6000612f8d602383612a53565b9150612f9882612f31565b604082019050919050565b60006020820190508181036000830152612fbc81612f80565b9050919050565b60008190508160005260206000209050919050565b60006020601f8301049050919050565b600082821b905092915050565b6000600883026130257fffffffffffffffffffffffffffffffffffffffffffffffffffffffffffffffff82612fe8565b61302f8683612fe8565b95508019841693508086168417925050509392505050565b6000819050919050565b600061306c613067613062846123a1565b613047565b6123a1565b9050919050565b6000819050919050565b61308683613051565b61309a61309282613073565b848454612ff5565b825550505050565b600090565b6130af6130a2565b6130ba81848461307d565b505050565b5b818110156130de576130d36000826130a7565b6001810190506130c0565b5050565b601f821115613123576130f481612fc3565b6130fd84612fd8565b8101602085101561310c578190505b61312061311885612fd8565b8301826130bf565b50505b505050565b600082821c905092915050565b600061314660001984600802613128565b1980831691505092915050565b600061315f8383613135565b9150826002028217905092915050565b6131788261240f565b67ffffffffffffffff8111156131915761319061273f565b5b61319b8254612c8f565b6131a68282856130e2565b600060209050601f8311600181146131d957600084156131c7578287015190505b6131d18582613153565b865550613239565b601f1984166131e786612fc3565b60005b8281101561320f578489015182556001820191506020850194506020810190506131ea565b8683101561322c5784890151613228601f891682613135565b8355505b6001600288020188555050505b505050505050565b600061324c826123a1565b91507fffffffffffffffffffffffffffffffffffffffffffffffffffffffffffffffff820361327e5761327d612dc7565b5b600182019050919050565b600060208201905061329e60008301846123ab565b92915050565b60006040820190506132b960008301856123ab565b6132c660208301846123ab565b939250505056fea2646970667358221220c8ba993d0385bbd0130457e5fbf733594b9280f08aaa7cd5ce1e2ab4db114b6e64736f6c634300081c0033",
  "linkReferences": {},
  "deployedLinkReferences": {}
}