{
  "_format": "hh-sol-artifact-1",
  "contractName": "PatientManagement",
  "sourceName": "contracts/PatientManagement.sol",
  "abi": [
    {
      "inputs": [],
      "stateMutability": "nonpayable",
      "type": "constructor"
    },
    {
      "anonymous": false,
      "inputs": [
        {
          "indexed": true,
          "internalType": "address",
          "name": "patient",
          "type": "address"
        },
        {
          "indexed": true,
          "internalType": "address",
          "name": "entity",
          "type": "address"
        }
      ],
      "name": "AccessGranted",
      "type": "event"
    },
    {
      "anonymous": false,
      "inputs": [
        {
          "indexed": true,
          "internalType": "address",
          "name": "patient",
          "type": "address"
        },
        {
          "indexed": true,
          "internalType": "address",
          "name": "entity",
          "type": "address"
        }
      ],
      "name": "AccessRevoked",
      "type": "event"
    },
    {
      "anonymous": false,
      "inputs": [
        {
          "indexed": true,
          "internalType": "address",
          "name": "patient",
          "type": "address"
        },
        {
          "indexed": true,
          "internalType": "address",
          "name": "entity",
          "type": "address"
        }
      ],
      "name": "EmergencyAccessGranted",
      "type": "event"
    },
    {
      "anonymous": false,
      "inputs": [
        {
          "indexed": true,
          "internalType": "address",
          "name": "patient",
          "type": "address"
        },
        {
          "indexed": false,
          "internalType": "uint256",
          "name": "recordId",
          "type": "uint256"
        },
        {
          "indexed": false,
          "internalType": "uint256",
          "name": "timestamp",
          "type": "uint256"
        }
      ],
      "name": "RecordUploaded",
      "type": "event"
    },
    {
      "anonymous": false,
      "inputs": [
        {
          "indexed": true,
          "internalType": "address",
          "name": "patient",
          "type": "address"
        },
        {
          "indexed": true,
          "internalType": "address",
          "name": "doctor",
          "type": "address"
        },
        {
          "indexed": false,
          "internalType": "uint256",
          "name": "recordId",
          "type": "uint256"
        }
      ],
      "name": "ReportAdded",
      "type": "event"
    },
    {
      "inputs": [
        {
          "internalType": "address",
          "name": "patient",
          "type": "address"
        },
        {
          "internalType": "bytes",
          "name": "reportHash",
          "type": "bytes"
        }
      ],
      "name": "addMedicalReport",
      "outputs": [],
      "stateMutability": "nonpayable",
      "type": "function"
    },
    {
      "inputs": [
        {
          "internalType": "address",
          "name": "patient",
          "type": "address"
        }
      ],
      "name": "getAccessList",
      "outputs": [
        {
          "internalType": "address[]",
          "name": "",
          "type": "address[]"
        }
      ],
      "stateMutability": "view",
      "type": "function"
    },
    {
      "inputs": [
        {
          "internalType": "address",
          "name": "entity",
          "type": "address"
        }
      ],
      "name": "grantAccess",
      "outputs": [],
      "stateMutability": "nonpayable",
      "type": "function"
    },
    {
      "inputs": [
        {
          "internalType": "address",
          "name": "entity",
          "type": "address"
        }
      ],
      "name": "grantEmergencyAccess",
      "outputs": [],
      "stateMutability": "nonpayable",
      "type": "function"
    },
    {
      "inputs": [
        {
          "internalType": "address",
          "name": "patient",
          "type": "address"
        },
        {
          "internalType": "address[]",
          "name": "approvers",
          "type": "address[]"
        }
      ],
      "name": "multiSigUnlock",
      "outputs": [],
      "stateMutability": "nonpayable",
      "type": "function"
    },
    {
      "inputs": [],
      "name": "owner",
      "outputs": [
        {
          "internalType": "address",
          "name": "",
          "type": "address"
        }
      ],
      "stateMutability": "view",
      "type": "function"
    },
    {
      "inputs": [
        {
          "internalType": "address",
          "name": "",
          "type": "address"
        }
      ],
      "name": "patients",
      "outputs": [
        {
          "internalType": "uint256",
          "name": "recordCount",
          "type": "uint256"
        }
      ],
      "stateMutability": "view",
      "type": "function"
    },
    {
      "inputs": [
        {
          "internalType": "address",
          "name": "",
          "type": "address"
        },
        {
          "internalType": "uint256",
          "name": "",
          "type": "uint256"
        }
      ],
      "name": "records",
      "outputs": [
        {
          "internalType": "bytes",
          "name": "recordHash",
          "type": "bytes"
        },
        {
          "internalType": "uint256",
          "name": "timestamp",
          "type": "uint256"
        },
        {
          "internalType": "address",
          "name": "uploader",
          "type": "address"
        }
      ],
      "stateMutability": "view",
      "type": "function"
    },
    {
      "inputs": [
        {
          "internalType": "address",
          "name": "entity",
          "type": "address"
        }
      ],
      "name": "revokeAccess",
      "outputs": [],
      "stateMutability": "nonpayable",
      "type": "function"
    },
    {
      "inputs": [
        {
          "internalType": "bytes",
          "name": "recordHash",
          "type": "bytes"
        }
      ],
      "name": "uploadRecord",
      "outputs": [],
      "stateMutability": "nonpayable",
      "type": "function"
    },
    {
      "inputs": [
        {
          "internalType": "address",
          "name": "patient",
          "type": "address"
        }
      ],
      "name": "viewPatientRecords",
      "outputs": [
        {
          "internalType": "bytes[]",
          "name": "",
          "type": "bytes[]"
        }
      ],
      "stateMutability": "view",
      "type": "function"
    },
    {
      "inputs": [],
      "name": "viewRecords",
      "outputs": [
        {
          "internalType": "bytes[]",
          "name": "",
          "type": "bytes[]"
        }
      ],
      "stateMutability": "view",
      "type": "function"
    }
  ],
  "bytecode": "0x6080604052348015600f57600080fd5b50336000806101000a81548173ffffffffffffffffffffffffffffffffffffffff021916908373ffffffffffffffffffffffffffffffffffffffff1602179055506131a58061005f6000396000f3fe608060405234801561001057600080fd5b50600436106100b45760003560e01c806385e685311161007157806385e68531146101b55780638d242b71146101d15780638da5cb5b146101ed578063aabc42801461020b578063da01581c14610227578063dd5751c414610243576100b4565b80630869cfbc146100b95780630ae5e739146100e9578063122dbe141461010557806370c104451461013557806380efcb3c1461015357806382a6c0ac14610183575b600080fd5b6100d360048036038101906100ce919061233d565b61025f565b6040516100e09190612383565b60405180910390f35b61010360048036038101906100fe919061233d565b61027d565b005b61011f600480360381019061011a919061233d565b610550565b60405161012c91906124f0565b60405180910390f35b61013d6108f6565b60405161014a91906124f0565b60405180910390f35b61016d6004803603810190610168919061233d565b610c9a565b60405161017a91906125d0565b60405180910390f35b61019d6004803603810190610198919061261e565b610f58565b6040516101ac939291906126b7565b60405180910390f35b6101cf60048036038101906101ca919061233d565b611037565b005b6101eb60048036038101906101e6919061283d565b6116ec565b005b6101f56118c9565b6040516102029190612899565b60405180910390f35b6102256004803603810190610220919061233d565b6118ed565b005b610241600480360381019061023c9190612969565b611d0b565b005b61025d600480360381019061025891906129c5565b6120ed565b005b60016020528060005260406000206000915090508060000154905081565b600073ffffffffffffffffffffffffffffffffffffffff168173ffffffffffffffffffffffffffffffffffffffff16036102ec576040517f08c379a00000000000000000000000000000000000000000000000000000000081526004016102e390612a6b565b60405180910390fd5b600160003373ffffffffffffffffffffffffffffffffffffffff1673ffffffffffffffffffffffffffffffffffffffff16815260200190815260200160002060010160008273ffffffffffffffffffffffffffffffffffffffff1673ffffffffffffffffffffffffffffffffffffffff16815260200190815260200160002060009054906101000a900460ff16156103b9576040517f08c379a00000000000000000000000000000000000000000000000000000000081526004016103b090612ad7565b60405180910390fd5b60018060003373ffffffffffffffffffffffffffffffffffffffff1673ffffffffffffffffffffffffffffffffffffffff16815260200190815260200160002060010160008373ffffffffffffffffffffffffffffffffffffffff1673ffffffffffffffffffffffffffffffffffffffff16815260200190815260200160002060006101000a81548160ff021916908315150217905550600160003373ffffffffffffffffffffffffffffffffffffffff1673ffffffffffffffffffffffffffffffffffffffff168152602001908152602001600020600301819080600181540180825580915050600190039060005260206000200160009091909190916101000a81548173ffffffffffffffffffffffffffffffffffffffff021916908373ffffffffffffffffffffffffffffffffffffffff1602179055508073ffffffffffffffffffffffffffffffffffffffff163373ffffffffffffffffffffffffffffffffffffffff167f9f520b3bfc56d06f7065d10b4683b3f57ac8895d5026cd176dee95ce1454cb8d60405160405180910390a350565b606081600160008273ffffffffffffffffffffffffffffffffffffffff1673ffffffffffffffffffffffffffffffffffffffff16815260200190815260200160002060010160003373ffffffffffffffffffffffffffffffffffffffff1673ffffffffffffffffffffffffffffffffffffffff16815260200190815260200160002060009054906101000a900460ff16806106745750600160008273ffffffffffffffffffffffffffffffffffffffff1673ffffffffffffffffffffffffffffffffffffffff16815260200190815260200160002060020160003373ffffffffffffffffffffffffffffffffffffffff1673ffffffffffffffffffffffffffffffffffffffff16815260200190815260200160002060009054906101000a900460ff165b806106aa57508073ffffffffffffffffffffffffffffffffffffffff163373ffffffffffffffffffffffffffffffffffffffff16145b80610700575060008054906101000a900473ffffffffffffffffffffffffffffffffffffffff1673ffffffffffffffffffffffffffffffffffffffff163373ffffffffffffffffffffffffffffffffffffffff16145b61073f576040517f08c379a000000000000000000000000000000000000000000000000000000000815260040161073690612b69565b60405180910390fd5b6000600160008573ffffffffffffffffffffffffffffffffffffffff1673ffffffffffffffffffffffffffffffffffffffff16815260200190815260200160002060000154905060008167ffffffffffffffff8111156107a2576107a16126fa565b5b6040519080825280602002602001820160405280156107d557816020015b60608152602001906001900390816107c05790505b50905060005b828110156108ea57600260008773ffffffffffffffffffffffffffffffffffffffff1673ffffffffffffffffffffffffffffffffffffffff1681526020019081526020016000206000828152602001908152602001600020600001805461084190612bb8565b80601f016020809104026020016040519081016040528092919081815260200182805461086d90612bb8565b80156108ba5780601f1061088f576101008083540402835291602001916108ba565b820191906000526020600020905b81548152906001019060200180831161089d57829003601f168201915b50505050508282815181106108d2576108d1612be9565b5b602002602001018190525080806001019150506107db565b50809350505050919050565b606033600160008273ffffffffffffffffffffffffffffffffffffffff1673ffffffffffffffffffffffffffffffffffffffff16815260200190815260200160002060010160003373ffffffffffffffffffffffffffffffffffffffff1673ffffffffffffffffffffffffffffffffffffffff16815260200190815260200160002060009054906101000a900460ff1680610a1a5750600160008273ffffffffffffffffffffffffffffffffffffffff1673ffffffffffffffffffffffffffffffffffffffff16815260200190815260200160002060020160003373ffffffffffffffffffffffffffffffffffffffff1673ffffffffffffffffffffffffffffffffffffffff16815260200190815260200160002060009054906101000a900460ff165b80610a5057508073ffffffffffffffffffffffffffffffffffffffff163373ffffffffffffffffffffffffffffffffffffffff16145b80610aa6575060008054906101000a900473ffffffffffffffffffffffffffffffffffffffff1673ffffffffffffffffffffffffffffffffffffffff163373ffffffffffffffffffffffffffffffffffffffff16145b610ae5576040517f08c379a0000000000000000000000000000000000000000000000000000000008152600401610adc90612b69565b60405180910390fd5b6000600160003373ffffffffffffffffffffffffffffffffffffffff1673ffffffffffffffffffffffffffffffffffffffff16815260200190815260200160002060000154905060008167ffffffffffffffff811115610b4857610b476126fa565b5b604051908082528060200260200182016040528015610b7b57816020015b6060815260200190600190039081610b665790505b50905060005b82811015610c9057600260003373ffffffffffffffffffffffffffffffffffffffff1673ffffffffffffffffffffffffffffffffffffffff16815260200190815260200160002060008281526020019081526020016000206000018054610be790612bb8565b80601f0160208091040260200160405190810160405280929190818152602001828054610c1390612bb8565b8015610c605780601f10610c3557610100808354040283529160200191610c60565b820191906000526020600020905b815481529060010190602001808311610c4357829003601f168201915b5050505050828281518110610c7857610c77612be9565b5b60200260200101819052508080600101915050610b81565b5080935050505090565b606081600160008273ffffffffffffffffffffffffffffffffffffffff1673ffffffffffffffffffffffffffffffffffffffff16815260200190815260200160002060010160003373ffffffffffffffffffffffffffffffffffffffff1673ffffffffffffffffffffffffffffffffffffffff16815260200190815260200160002060009054906101000a900460ff1680610dbe5750600160008273ffffffffffffffffffffffffffffffffffffffff1673ffffffffffffffffffffffffffffffffffffffff16815260200190815260200160002060020160003373ffffffffffffffffffffffffffffffffffffffff1673ffffffffffffffffffffffffffffffffffffffff16815260200190815260200160002060009054906101000a900460ff165b80610df457508073ffffffffffffffffffffffffffffffffffffffff163373ffffffffffffffffffffffffffffffffffffffff16145b80610e4a575060008054906101000a900473ffffffffffffffffffffffffffffffffffffffff1673ffffffffffffffffffffffffffffffffffffffff163373ffffffffffffffffffffffffffffffffffffffff16145b610e89576040517f08c379a0000000000000000000000000000000000000000000000000000000008152600401610e8090612b69565b60405180910390fd5b600160008473ffffffffffffffffffffffffffffffffffffffff1673ffffffffffffffffffffffffffffffffffffffff168152602001908152602001600020600301805480602002602001604051908101604052809291908181526020018280548015610f4b57602002820191906000526020600020905b8160009054906101000a900473ffffffffffffffffffffffffffffffffffffffff1673ffffffffffffffffffffffffffffffffffffffff1681526020019060010190808311610f01575b5050505050915050919050565b600260205281600052604060002060205280600052604060002060009150915050806000018054610f8890612bb8565b80601f0160208091040260200160405190810160405280929190818152602001828054610fb490612bb8565b80156110015780601f10610fd657610100808354040283529160200191611001565b820191906000526020600020905b815481529060010190602001808311610fe457829003601f168201915b5050505050908060010154908060020160009054906101000a900473ffffffffffffffffffffffffffffffffffffffff16905083565b33600160008273ffffffffffffffffffffffffffffffffffffffff1673ffffffffffffffffffffffffffffffffffffffff16815260200190815260200160002060010160003373ffffffffffffffffffffffffffffffffffffffff1673ffffffffffffffffffffffffffffffffffffffff16815260200190815260200160002060009054906101000a900460ff16806111595750600160008273ffffffffffffffffffffffffffffffffffffffff1673ffffffffffffffffffffffffffffffffffffffff16815260200190815260200160002060020160003373ffffffffffffffffffffffffffffffffffffffff1673ffffffffffffffffffffffffffffffffffffffff16815260200190815260200160002060009054906101000a900460ff165b8061118f57508073ffffffffffffffffffffffffffffffffffffffff163373ffffffffffffffffffffffffffffffffffffffff16145b806111e5575060008054906101000a900473ffffffffffffffffffffffffffffffffffffffff1673ffffffffffffffffffffffffffffffffffffffff163373ffffffffffffffffffffffffffffffffffffffff16145b611224576040517f08c379a000000000000000000000000000000000000000000000000000000000815260040161121b90612b69565b60405180910390fd5b600160003373ffffffffffffffffffffffffffffffffffffffff1673ffffffffffffffffffffffffffffffffffffffff16815260200190815260200160002060010160008373ffffffffffffffffffffffffffffffffffffffff1673ffffffffffffffffffffffffffffffffffffffff16815260200190815260200160002060009054906101000a900460ff166112f0576040517f08c379a00000000000000000000000000000000000000000000000000000000081526004016112e790612c64565b60405180910390fd5b6000600160003373ffffffffffffffffffffffffffffffffffffffff1673ffffffffffffffffffffffffffffffffffffffff16815260200190815260200160002060010160008473ffffffffffffffffffffffffffffffffffffffff1673ffffffffffffffffffffffffffffffffffffffff16815260200190815260200160002060006101000a81548160ff02191690831515021790555060005b600160003373ffffffffffffffffffffffffffffffffffffffff1673ffffffffffffffffffffffffffffffffffffffff1681526020019081526020016000206003018054905081101561168d578273ffffffffffffffffffffffffffffffffffffffff16600160003373ffffffffffffffffffffffffffffffffffffffff1673ffffffffffffffffffffffffffffffffffffffff168152602001908152602001600020600301828154811061144357611442612be9565b5b9060005260206000200160009054906101000a900473ffffffffffffffffffffffffffffffffffffffff1673ffffffffffffffffffffffffffffffffffffffff160361168057600160003373ffffffffffffffffffffffffffffffffffffffff1673ffffffffffffffffffffffffffffffffffffffff16815260200190815260200160002060030160018060003373ffffffffffffffffffffffffffffffffffffffff1673ffffffffffffffffffffffffffffffffffffffff1681526020019081526020016000206003018054905061151c9190612cb3565b8154811061152d5761152c612be9565b5b9060005260206000200160009054906101000a900473ffffffffffffffffffffffffffffffffffffffff16600160003373ffffffffffffffffffffffffffffffffffffffff1673ffffffffffffffffffffffffffffffffffffffff16815260200190815260200160002060030182815481106115ac576115ab612be9565b5b9060005260206000200160006101000a81548173ffffffffffffffffffffffffffffffffffffffff021916908373ffffffffffffffffffffffffffffffffffffffff160217905550600160003373ffffffffffffffffffffffffffffffffffffffff1673ffffffffffffffffffffffffffffffffffffffff16815260200190815260200160002060030180548061164657611645612ce7565b5b6001900381819060005260206000200160006101000a81549073ffffffffffffffffffffffffffffffffffffffff0219169055905561168d565b808060010191505061138b565b508173ffffffffffffffffffffffffffffffffffffffff163373ffffffffffffffffffffffffffffffffffffffff167f825c8be24eb0df19500f63e86c29e7d0d951e73056b889b891d85e40938d9b6e60405160405180910390a35050565b600281511015611731576040517f08c379a000000000000000000000000000000000000000000000000000000000815260040161172890612d62565b60405180910390fd5b60005b81518110156117d357600073ffffffffffffffffffffffffffffffffffffffff1682828151811061176857611767612be9565b5b602002602001015173ffffffffffffffffffffffffffffffffffffffff16036117c6576040517f08c379a00000000000000000000000000000000000000000000000000000000081526004016117bd90612dce565b60405180910390fd5b8080600101915050611734565b5060018060008473ffffffffffffffffffffffffffffffffffffffff1673ffffffffffffffffffffffffffffffffffffffff16815260200190815260200160002060020160003373ffffffffffffffffffffffffffffffffffffffff1673ffffffffffffffffffffffffffffffffffffffff16815260200190815260200160002060006101000a81548160ff0219169083151502179055503373ffffffffffffffffffffffffffffffffffffffff168273ffffffffffffffffffffffffffffffffffffffff167f75ad06d0d9be353fc3db518c0be111d31a4d7b4dd71dd4f1870e76b96cd4bdef60405160405180910390a35050565b60008054906101000a900473ffffffffffffffffffffffffffffffffffffffff1681565b33600160008273ffffffffffffffffffffffffffffffffffffffff1673ffffffffffffffffffffffffffffffffffffffff16815260200190815260200160002060010160003373ffffffffffffffffffffffffffffffffffffffff1673ffffffffffffffffffffffffffffffffffffffff16815260200190815260200160002060009054906101000a900460ff1680611a0f5750600160008273ffffffffffffffffffffffffffffffffffffffff1673ffffffffffffffffffffffffffffffffffffffff16815260200190815260200160002060020160003373ffffffffffffffffffffffffffffffffffffffff1673ffffffffffffffffffffffffffffffffffffffff16815260200190815260200160002060009054906101000a900460ff165b80611a4557508073ffffffffffffffffffffffffffffffffffffffff163373ffffffffffffffffffffffffffffffffffffffff16145b80611a9b575060008054906101000a900473ffffffffffffffffffffffffffffffffffffffff1673ffffffffffffffffffffffffffffffffffffffff163373ffffffffffffffffffffffffffffffffffffffff16145b611ada576040517f08c379a0000000000000000000000000000000000000000000000000000000008152600401611ad190612b69565b60405180910390fd5b600073ffffffffffffffffffffffffffffffffffffffff168273ffffffffffffffffffffffffffffffffffffffff1603611b49576040517f08c379a0000000000000000000000000000000000000000000000000000000008152600401611b4090612a6b565b60405180910390fd5b600160003373ffffffffffffffffffffffffffffffffffffffff1673ffffffffffffffffffffffffffffffffffffffff16815260200190815260200160002060020160008373ffffffffffffffffffffffffffffffffffffffff1673ffffffffffffffffffffffffffffffffffffffff16815260200190815260200160002060009054906101000a900460ff1615611c16576040517f08c379a0000000000000000000000000000000000000000000000000000000008152600401611c0d90612e60565b60405180910390fd5b60018060003373ffffffffffffffffffffffffffffffffffffffff1673ffffffffffffffffffffffffffffffffffffffff16815260200190815260200160002060020160008473ffffffffffffffffffffffffffffffffffffffff1673ffffffffffffffffffffffffffffffffffffffff16815260200190815260200160002060006101000a81548160ff0219169083151502179055508173ffffffffffffffffffffffffffffffffffffffff163373ffffffffffffffffffffffffffffffffffffffff167f75ad06d0d9be353fc3db518c0be111d31a4d7b4dd71dd4f1870e76b96cd4bdef60405160405180910390a35050565b81600160008273ffffffffffffffffffffffffffffffffffffffff1673ffffffffffffffffffffffffffffffffffffffff16815260200190815260200160002060010160003373ffffffffffffffffffffffffffffffffffffffff1673ffffffffffffffffffffffffffffffffffffffff16815260200190815260200160002060009054906101000a900460ff1680611e2d5750600160008273ffffffffffffffffffffffffffffffffffffffff1673ffffffffffffffffffffffffffffffffffffffff16815260200190815260200160002060020160003373ffffffffffffffffffffffffffffffffffffffff1673ffffffffffffffffffffffffffffffffffffffff16815260200190815260200160002060009054906101000a900460ff165b80611e6357508073ffffffffffffffffffffffffffffffffffffffff163373ffffffffffffffffffffffffffffffffffffffff16145b80611eb9575060008054906101000a900473ffffffffffffffffffffffffffffffffffffffff1673ffffffffffffffffffffffffffffffffffffffff163373ffffffffffffffffffffffffffffffffffffffff16145b611ef8576040517f08c379a0000000000000000000000000000000000000000000000000000000008152600401611eef90612b69565b60405180910390fd5b6000600160008573ffffffffffffffffffffffffffffffffffffffff1673ffffffffffffffffffffffffffffffffffffffff16815260200190815260200160002060000154905060405180606001604052808481526020014281526020013373ffffffffffffffffffffffffffffffffffffffff16815250600260008673ffffffffffffffffffffffffffffffffffffffff1673ffffffffffffffffffffffffffffffffffffffff16815260200190815260200160002060008381526020019081526020016000206000820151816000019081611fd5919061302c565b506020820151816001015560408201518160020160006101000a81548173ffffffffffffffffffffffffffffffffffffffff021916908373ffffffffffffffffffffffffffffffffffffffff160217905550905050600160008573ffffffffffffffffffffffffffffffffffffffff1673ffffffffffffffffffffffffffffffffffffffff168152602001908152602001600020600001600081548092919061207d906130fe565b91905055503373ffffffffffffffffffffffffffffffffffffffff168473ffffffffffffffffffffffffffffffffffffffff167fb30769f0089c5a40a529436f45e120ad8232a93018848e438aa84cbb7cd39586836040516120df9190612383565b60405180910390a350505050565b6000600160003373ffffffffffffffffffffffffffffffffffffffff1673ffffffffffffffffffffffffffffffffffffffff16815260200190815260200160002060000154905060405180606001604052808381526020014281526020013373ffffffffffffffffffffffffffffffffffffffff16815250600260003373ffffffffffffffffffffffffffffffffffffffff1673ffffffffffffffffffffffffffffffffffffffff168152602001908152602001600020600083815260200190815260200160002060008201518160000190816121ca919061302c565b506020820151816001015560408201518160020160006101000a81548173ffffffffffffffffffffffffffffffffffffffff021916908373ffffffffffffffffffffffffffffffffffffffff160217905550905050600160003373ffffffffffffffffffffffffffffffffffffffff1673ffffffffffffffffffffffffffffffffffffffff1681526020019081526020016000206000016000815480929190612272906130fe565b91905055503373ffffffffffffffffffffffffffffffffffffffff167f26b49ae4df0ae8531f707cfef53e4d810ca556d6f54a4281385c19f27896c2d082426040516122bf929190613146565b60405180910390a25050565b6000604051905090565b600080fd5b600080fd5b600073ffffffffffffffffffffffffffffffffffffffff82169050919050565b600061230a826122df565b9050919050565b61231a816122ff565b811461232557600080fd5b50565b60008135905061233781612311565b92915050565b600060208284031215612353576123526122d5565b5b600061236184828501612328565b91505092915050565b6000819050919050565b61237d8161236a565b82525050565b60006020820190506123986000830184612374565b92915050565b600081519050919050565b600082825260208201905092915050565b6000819050602082019050919050565b600081519050919050565b600082825260208201905092915050565b60005b838110156124045780820151818401526020810190506123e9565b60008484015250505050565b6000601f19601f8301169050919050565b600061242c826123ca565b61243681856123d5565b93506124468185602086016123e6565b61244f81612410565b840191505092915050565b60006124668383612421565b905092915050565b6000602082019050919050565b60006124868261239e565b61249081856123a9565b9350836020820285016124a2856123ba565b8060005b858110156124de57848403895281516124bf858261245a565b94506124ca8361246e565b925060208a019950506001810190506124a6565b50829750879550505050505092915050565b6000602082019050818103600083015261250a818461247b565b905092915050565b600081519050919050565b600082825260208201905092915050565b6000819050602082019050919050565b612547816122ff565b82525050565b6000612559838361253e565b60208301905092915050565b6000602082019050919050565b600061257d82612512565b612587818561251d565b93506125928361252e565b8060005b838110156125c35781516125aa888261254d565b97506125b583612565565b925050600181019050612596565b5085935050505092915050565b600060208201905081810360008301526125ea8184612572565b905092915050565b6125fb8161236a565b811461260657600080fd5b50565b600081359050612618816125f2565b92915050565b60008060408385031215612635576126346122d5565b5b600061264385828601612328565b925050602061265485828601612609565b9150509250929050565b600082825260208201905092915050565b600061267a826123ca565b612684818561265e565b93506126948185602086016123e6565b61269d81612410565b840191505092915050565b6126b1816122ff565b82525050565b600060608201905081810360008301526126d1818661266f565b90506126e06020830185612374565b6126ed60408301846126a8565b949350505050565b600080fd5b7f4e487b7100000000000000000000000000000000000000000000000000000000600052604160045260246000fd5b61273282612410565b810181811067ffffffffffffffff82111715612751576127506126fa565b5b80604052505050565b60006127646122cb565b90506127708282612729565b919050565b600067ffffffffffffffff8211156127905761278f6126fa565b5b602082029050602081019050919050565b600080fd5b60006127b96127b484612775565b61275a565b905080838252602082019050602084028301858111156127dc576127db6127a1565b5b835b8181101561280557806127f18882612328565b8452602084019350506020810190506127de565b5050509392505050565b600082601f830112612824576128236126f5565b5b81356128348482602086016127a6565b91505092915050565b60008060408385031215612854576128536122d5565b5b600061286285828601612328565b925050602083013567ffffffffffffffff811115612883576128826122da565b5b61288f8582860161280f565b9150509250929050565b60006020820190506128ae60008301846126a8565b92915050565b600080fd5b600067ffffffffffffffff8211156128d4576128d36126fa565b5b6128dd82612410565b9050602081019050919050565b82818337600083830152505050565b600061290c612907846128b9565b61275a565b905082815260208101848484011115612928576129276128b4565b5b6129338482856128ea565b509392505050565b600082601f8301126129505761294f6126f5565b5b81356129608482602086016128f9565b91505092915050565b600080604083850312156129805761297f6122d5565b5b600061298e85828601612328565b925050602083013567ffffffffffffffff8111156129af576129ae6122da565b5b6129bb8582860161293b565b9150509250929050565b6000602082840312156129db576129da6122d5565b5b600082013567ffffffffffffffff8111156129f9576129f86122da565b5b612a058482850161293b565b91505092915050565b600082825260208201905092915050565b7f496e76616c696420616464726573730000000000000000000000000000000000600082015250565b6000612a55600f83612a0e565b9150612a6082612a1f565b602082019050919050565b60006020820190508181036000830152612a8481612a48565b9050919050565b7f456e7469747920616c7265616479206861732061636365737300000000000000600082015250565b6000612ac1601983612a0e565b9150612acc82612a8b565b602082019050919050565b60006020820190508181036000830152612af081612ab4565b9050919050565b7f4e6f7420617574686f72697a656420746f20616363657373207468697320706160008201527f7469656e742773207265636f7264730000000000000000000000000000000000602082015250565b6000612b53602f83612a0e565b9150612b5e82612af7565b604082019050919050565b60006020820190508181036000830152612b8281612b46565b9050919050565b7f4e487b7100000000000000000000000000000000000000000000000000000000600052602260045260246000fd5b60006002820490506001821680612bd057607f821691505b602082108103612be357612be2612b89565b5b50919050565b7f4e487b7100000000000000000000000000000000000000000000000000000000600052603260045260246000fd5b7f456e7469747920646f6573206e6f742068617665206163636573730000000000600082015250565b6000612c4e601b83612a0e565b9150612c5982612c18565b602082019050919050565b60006020820190508181036000830152612c7d81612c41565b9050919050565b7f4e487b7100000000000000000000000000000000000000000000000000000000600052601160045260246000fd5b6000612cbe8261236a565b9150612cc98361236a565b9250828203905081811115612ce157612ce0612c84565b5b92915050565b7f4e487b7100000000000000000000000000000000000000000000000000000000600052603160045260246000fd5b7f4174206c65617374203220617070726f76657273207265717569726564000000600082015250565b6000612d4c601d83612a0e565b9150612d5782612d16565b602082019050919050565b60006020820190508181036000830152612d7b81612d3f565b9050919050565b7f496e76616c696420617070726f76657220616464726573730000000000000000600082015250565b6000612db8601883612a0e565b9150612dc382612d82565b602082019050919050565b60006020820190508181036000830152612de781612dab565b9050919050565b7f456e7469747920616c72656164792068617320656d657267656e63792061636360008201527f6573730000000000000000000000000000000000000000000000000000000000602082015250565b6000612e4a602383612a0e565b9150612e5582612dee565b604082019050919050565b60006020820190508181036000830152612e7981612e3d565b9050919050565b60008190508160005260206000209050919050565b60006020601f8301049050919050565b600082821b905092915050565b600060088302612ee27fffffffffffffffffffffffffffffffffffffffffffffffffffffffffffffffff82612ea5565b612eec8683612ea5565b95508019841693508086168417925050509392505050565b6000819050919050565b6000612f29612f24612f1f8461236a565b612f04565b61236a565b9050919050565b6000819050919050565b612f4383612f0e565b612f57612f4f82612f30565b848454612eb2565b825550505050565b600090565b612f6c612f5f565b612f77818484612f3a565b505050565b5b81811015612f9b57612f90600082612f64565b600181019050612f7d565b5050565b601f821115612fe057612fb181612e80565b612fba84612e95565b81016020851015612fc9578190505b612fdd612fd585612e95565b830182612f7c565b50505b505050565b600082821c905092915050565b600061300360001984600802612fe5565b1980831691505092915050565b600061301c8383612ff2565b9150826002028217905092915050565b613035826123ca565b67ffffffffffffffff81111561304e5761304d6126fa565b5b6130588254612bb8565b613063828285612f9f565b600060209050601f8311600181146130965760008415613084578287015190505b61308e8582613010565b8655506130f6565b601f1984166130a486612e80565b60005b828110156130cc578489015182556001820191506020850194506020810190506130a7565b868310156130e957848901516130e5601f891682612ff2565b8355505b6001600288020188555050505b505050505050565b60006131098261236a565b91507fffffffffffffffffffffffffffffffffffffffffffffffffffffffffffffffff820361313b5761313a612c84565b5b600182019050919050565b600060408201905061315b6000830185612374565b6131686020830184612374565b939250505056fea2646970667358221220ce2d963c5e0263d4d5ac82aeb983307646641fea710626e69a55a27695bd131f64736f6c634300081c0033",
  "linkReferences": {},
  "deployedLinkReferences": {}
}