{
  "_format": "hh-sol-artifact-1",
  "contractName": "MedAccessControl",
  "sourceName": "contracts/MedAccessControl.sol",
  "abi": [
    {
      "anonymous": false,
      "inputs": [
        {
          "indexed": true,
          "internalType": "address",
          "name": "patient",
          "type": "address"
        },
        {
          "indexed": true,
          "internalType": "address",
          "name": "provider",
          "type": "address"
        },
        {
          "indexed": false,
          "internalType": "enum MedAccessControl.AccessType",
          "name": "accessType",
          "type": "uint8"
        },
        {
          "indexed": false,
          "internalType": "uint256",
          "name": "expiresAt",
          "type": "uint256"
        }
      ],
      "name": "AccessGranted",
      "type": "event"
    },
    {
      "anonymous": false,
      "inputs": [
        {
          "indexed": true,
          "internalType": "address",
          "name": "patient",
          "type": "address"
        },
        {
          "indexed": true,
          "internalType": "address",
          "name": "provider",
          "type": "address"
        },
        {
          "indexed": false,
          "internalType": "string",
          "name": "reason",
          "type": "string"
        }
      ],
      "name": "AccessRevoked",
      "type": "event"
    },
    {
      "anonymous": false,
      "inputs": [
        {
          "indexed": true,
          "internalType": "address",
          "name": "patient",
          "type": "address"
        },
        {
          "indexed": true,
          "internalType": "address",
          "name": "provider",
          "type": "address"
        },
        {
          "indexed": false,
          "internalType": "string",
          "name": "actionType",
          "type": "string"
        }
      ],
      "name": "AccessUsed",
      "type": "event"
    },
    {
      "anonymous": false,
      "inputs": [
        {
          "indexed": true,
          "internalType": "address",
          "name": "patient",
          "type": "address"
        },
        {
          "indexed": true,
          "internalType": "address",
          "name": "provider",
          "type": "address"
        },
        {
          "indexed": false,
          "internalType": "string",
          "name": "reason",
          "type": "string"
        }
      ],
      "name": "EmergencyAccessUsed",
      "type": "event"
    },
    {
      "inputs": [
        {
          "internalType": "address",
          "name": "patient",
          "type": "address"
        },
        {
          "internalType": "address",
          "name": "provider",
          "type": "address"
        },
        {
          "internalType": "enum MedAccessControl.AccessType",
          "name": "accessType",
          "type": "uint8"
        }
      ],
      "name": "checkAccess",
      "outputs": [
        {
          "internalType": "bool",
          "name": "",
          "type": "bool"
        }
      ],
      "stateMutability": "nonpayable",
      "type": "function"
    },
    {
      "inputs": [
        {
          "internalType": "address",
          "name": "patient",
          "type": "address"
        },
        {
          "internalType": "string",
          "name": "reason",
          "type": "string"
        }
      ],
      "name": "emergencyAccess",
      "outputs": [
        {
          "internalType": "bool",
          "name": "",
          "type": "bool"
        }
      ],
      "stateMutability": "nonpayable",
      "type": "function"
    },
    {
      "inputs": [
        {
          "internalType": "uint256",
          "name": "count",
          "type": "uint256"
        }
      ],
      "name": "getMyAccessHistory",
      "outputs": [
        {
          "components": [
            {
              "internalType": "address",
              "name": "provider",
              "type": "address"
            },
            {
              "internalType": "uint256",
              "name": "timestamp",
              "type": "uint256"
            },
            {
              "internalType": "string",
              "name": "actionType",
              "type": "string"
            },
            {
              "internalType": "string",
              "name": "details",
              "type": "string"
            }
          ],
          "internalType": "struct MedAccessControl.AccessEvent[]",
          "name": "",
          "type": "tuple[]"
        }
      ],
      "stateMutability": "view",
      "type": "function"
    },
    {
      "inputs": [],
      "name": "getMyActivePermissions",
      "outputs": [
        {
          "components": [
            {
              "internalType": "address",
              "name": "provider",
              "type": "address"
            },
            {
              "internalType": "string",
              "name": "providerName",
              "type": "string"
            },
            {
              "internalType": "string",
              "name": "providerRole",
              "type": "string"
            },
            {
              "internalType": "enum MedAccessControl.AccessType",
              "name": "accessType",
              "type": "uint8"
            },
            {
              "internalType": "uint256",
              "name": "grantedAt",
              "type": "uint256"
            },
            {
              "internalType": "uint256",
              "name": "expiresAt",
              "type": "uint256"
            },
            {
              "internalType": "bool",
              "name": "isActive",
              "type": "bool"
            }
          ],
          "internalType": "struct MedAccessControl.AccessPermission[]",
          "name": "",
          "type": "tuple[]"
        }
      ],
      "stateMutability": "view",
      "type": "function"
    },
    {
      "inputs": [
        {
          "internalType": "address",
          "name": "provider",
          "type": "address"
        },
        {
          "internalType": "string",
          "name": "providerName",
          "type": "string"
        },
        {
          "internalType": "string",
          "name": "providerRole",
          "type": "string"
        },
        {
          "internalType": "enum MedAccessControl.AccessType",
          "name": "accessType",
          "type": "uint8"
        },
        {
          "internalType": "uint256",
          "name": "durationDays",
          "type": "uint256"
        }
      ],
      "name": "grantAccess",
      "outputs": [],
      "stateMutability": "nonpayable",
      "type": "function"
    },
    {
      "inputs": [
        {
          "internalType": "address",
          "name": "provider",
          "type": "address"
        },
        {
          "internalType": "string",
          "name": "reason",
          "type": "string"
        }
      ],
      "name": "revokeAccess",
      "outputs": [],
      "stateMutability": "nonpayable",
      "type": "function"
    },
    {
      "inputs": [
        {
          "internalType": "string",
          "name": "reason",
          "type": "string"
        }
      ],
      "name": "revokeAllAccess",
      "outputs": [],
      "stateMutability": "nonpayable",
      "type": "function"
    },
    {
      "inputs": [
        {
          "internalType": "address",
          "name": "provider",
          "type": "address"
        },
        {
          "internalType": "uint256",
          "name": "durationDays",
          "type": "uint256"
        }
      ],
      "name": "updateAccessExpiration",
      "outputs": [],
      "stateMutability": "nonpayable",
      "type": "function"
    }
  ],
  "bytecode": "0x6080604052348015600f57600080fd5b506134748061001f6000396000f3fe608060405234801561001057600080fd5b50600436106100885760003560e01c8063717d17801161005b578063717d1780146101275780637555919914610143578063b7b5bea11461015f578063c9f3c3b91461018f57610088565b806319a74b301461008d5780631a9bc71c146100ab57806361270a05146100db5780636a44cac91461010b575b600080fd5b6100956101ab565b6040516100a291906125a5565b60405180910390f35b6100c560048036038101906100c09190612622565b610603565b6040516100d29190612684565b60405180910390f35b6100f560048036038101906100f09190612704565b61099b565b6040516101029190612684565b60405180910390f35b61012560048036038101906101209190612704565b610a94565b005b610141600480360381019061013c9190612790565b610d4a565b005b61015d6004803603810190610158919061284c565b611590565b005b6101796004803603810190610174919061288c565b611850565b60405161018691906129e5565b60405180910390f35b6101a960048036038101906101a49190612a07565b611b1f565b005b606060008060003373ffffffffffffffffffffffffffffffffffffffff1673ffffffffffffffffffffffffffffffffffffffff16815260200190815260200160002090506000805b82805490508110156102b05782818154811061021257610211612a54565b5b906000526020600020906007020160060160009054906101000a900460ff16801561028f5750600083828154811061024d5761024c612a54565b5b906000526020600020906007020160050154148061028e57504283828154811061027a57610279612a54565b5b906000526020600020906007020160050154115b5b156102a357818061029f90612ab2565b9250505b80806001019150506101f3565b5060008167ffffffffffffffff8111156102cd576102cc612afa565b5b60405190808252806020026020018201604052801561030657816020015b6102f361221f565b8152602001906001900390816102eb5790505b5090506000805b84805490508110156105f85784818154811061032c5761032b612a54565b5b906000526020600020906007020160060160009054906101000a900460ff1680156103a95750600085828154811061036757610366612a54565b5b90600052602060002090600702016005015414806103a857504285828154811061039457610393612a54565b5b906000526020600020906007020160050154115b5b156105eb578481815481106103c1576103c0612a54565b5b90600052602060002090600702016040518060e00160405290816000820160009054906101000a900473ffffffffffffffffffffffffffffffffffffffff1673ffffffffffffffffffffffffffffffffffffffff1673ffffffffffffffffffffffffffffffffffffffff16815260200160018201805461044090612b58565b80601f016020809104026020016040519081016040528092919081815260200182805461046c90612b58565b80156104b95780601f1061048e576101008083540402835291602001916104b9565b820191906000526020600020905b81548152906001019060200180831161049c57829003601f168201915b505050505081526020016002820180546104d290612b58565b80601f01602080910402602001604051908101604052809291908181526020018280546104fe90612b58565b801561054b5780601f106105205761010080835404028352916020019161054b565b820191906000526020600020905b81548152906001019060200180831161052e57829003601f168201915b505050505081526020016003820160009054906101000a900460ff166004811115610579576105786123c1565b5b600481111561058b5761058a6123c1565b5b815260200160048201548152602001600582015481526020016006820160009054906101000a900460ff1615151515815250508383815181106105d1576105d0612a54565b5b602002602001018190525081806105e790612ab2565b9250505b808060010191505061030d565b508194505050505090565b60003373ffffffffffffffffffffffffffffffffffffffff168473ffffffffffffffffffffffffffffffffffffffff16036106415760019050610994565b3373ffffffffffffffffffffffffffffffffffffffff168373ffffffffffffffffffffffffffffffffffffffff161480156107025750600360008573ffffffffffffffffffffffffffffffffffffffff1673ffffffffffffffffffffffffffffffffffffffff16815260200190815260200160002060008473ffffffffffffffffffffffffffffffffffffffff1673ffffffffffffffffffffffffffffffffffffffff16815260200190815260200160002060009054906101000a900460ff165b1561098f576000600260008673ffffffffffffffffffffffffffffffffffffffff1673ffffffffffffffffffffffffffffffffffffffff16815260200190815260200160002060008573ffffffffffffffffffffffffffffffffffffffff1673ffffffffffffffffffffffffffffffffffffffff16815260200190815260200160002054905060008060008773ffffffffffffffffffffffffffffffffffffffff1673ffffffffffffffffffffffffffffffffffffffff16815260200190815260200160002082815481106107da576107d9612a54565b5b9060005260206000209060070201905060008160060160009054906101000a900460ff16801561081c575060008260050154148061081b5750428260050154115b5b90506000600480811115610833576108326123c1565b5b8360030160009054906101000a900460ff166004811115610857576108566123c1565b5b14806108975750856004811115610871576108706123c1565b5b8360030160009054906101000a900460ff166004811115610895576108946123c1565b5b145b90508180156108a35750805b1561098a5761091088886040518060400160405280600b81526020017f4143434553535f444154410000000000000000000000000000000000000000008152506108ec8a611d49565b6040516020016108fc9190612c11565b604051602081830303815290604052611f95565b8673ffffffffffffffffffffffffffffffffffffffff168873ffffffffffffffffffffffffffffffffffffffff167fda3ab937a9d08c3f52296b0389071a0701a4b99b1f209f7b85565f17b386e3f461096889611d49565b6040516109759190612c7d565b60405180910390a36001945050505050610994565b505050505b600090505b9392505050565b6000610a2284336040518060400160405280601081526020017f454d455247454e43595f4143434553530000000000000000000000000000000081525086868080601f016020809104026020016040519081016040528093929190818152602001838380828437600081840152601f19601f82011690508083019250505050505050611f95565b3373ffffffffffffffffffffffffffffffffffffffff168473ffffffffffffffffffffffffffffffffffffffff167f25819ed73651ee6de0854504207df7778aa7c0bc229b09c8178a921f2f3820db8585604051610a81929190612cdb565b60405180910390a3600190509392505050565b600360003373ffffffffffffffffffffffffffffffffffffffff1673ffffffffffffffffffffffffffffffffffffffff16815260200190815260200160002060008473ffffffffffffffffffffffffffffffffffffffff1673ffffffffffffffffffffffffffffffffffffffff16815260200190815260200160002060009054906101000a900460ff16610b5d576040517f08c379a0000000000000000000000000000000000000000000000000000000008152600401610b5490612d71565b60405180910390fd5b6000600260003373ffffffffffffffffffffffffffffffffffffffff1673ffffffffffffffffffffffffffffffffffffffff16815260200190815260200160002060008573ffffffffffffffffffffffffffffffffffffffff1673ffffffffffffffffffffffffffffffffffffffff16815260200190815260200160002054905060008060003373ffffffffffffffffffffffffffffffffffffffff1673ffffffffffffffffffffffffffffffffffffffff1681526020019081526020016000208281548110610c3057610c2f612a54565b5b906000526020600020906007020160060160006101000a81548160ff021916908315150217905550610cdd33856040518060400160405280600d81526020017f5245564f4b455f4143434553530000000000000000000000000000000000000081525086868080601f016020809104026020016040519081016040528093929190818152602001838380828437600081840152601f19601f82011690508083019250505050505050611f95565b8373ffffffffffffffffffffffffffffffffffffffff163373ffffffffffffffffffffffffffffffffffffffff167f0a2382b7b0f44ee62df753c00034038c109332bf9b8f52418af74aa2859780fb8585604051610d3c929190612cdb565b60405180910390a350505050565b600073ffffffffffffffffffffffffffffffffffffffff168773ffffffffffffffffffffffffffffffffffffffff1603610db9576040517f08c379a0000000000000000000000000000000000000000000000000000000008152600401610db090612ddd565b60405180910390fd5b3373ffffffffffffffffffffffffffffffffffffffff168773ffffffffffffffffffffffffffffffffffffffff1603610e27576040517f08c379a0000000000000000000000000000000000000000000000000000000008152600401610e1e90612e49565b60405180910390fd5b600080821115610e4e576201518082610e409190612e69565b42610e4b9190612eab565b90505b600360003373ffffffffffffffffffffffffffffffffffffffff1673ffffffffffffffffffffffffffffffffffffffff16815260200190815260200160002060008973ffffffffffffffffffffffffffffffffffffffff1673ffffffffffffffffffffffffffffffffffffffff16815260200190815260200160002060009054906101000a900460ff1615611133576000600260003373ffffffffffffffffffffffffffffffffffffffff1673ffffffffffffffffffffffffffffffffffffffff16815260200190815260200160002060008a73ffffffffffffffffffffffffffffffffffffffff1673ffffffffffffffffffffffffffffffffffffffff168152602001908152602001600020549050836000803373ffffffffffffffffffffffffffffffffffffffff1673ffffffffffffffffffffffffffffffffffffffff1681526020019081526020016000208281548110610faf57610fae612a54565b5b906000526020600020906007020160030160006101000a81548160ff02191690836004811115610fe257610fe16123c1565b5b0217905550816000803373ffffffffffffffffffffffffffffffffffffffff1673ffffffffffffffffffffffffffffffffffffffff168152602001908152602001600020828154811061103857611037612a54565b5b90600052602060002090600702016005018190555060016000803373ffffffffffffffffffffffffffffffffffffffff1673ffffffffffffffffffffffffffffffffffffffff168152602001908152602001600020828154811061109f5761109e612a54565b5b906000526020600020906007020160060160006101000a81548160ff021916908315150217905550426000803373ffffffffffffffffffffffffffffffffffffffff1673ffffffffffffffffffffffffffffffffffffffff168152602001908152602001600020828154811061111857611117612a54565b5b906000526020600020906007020160040181905550506114b7565b60006040518060e001604052808a73ffffffffffffffffffffffffffffffffffffffff16815260200189898080601f016020809104026020016040519081016040528093929190818152602001838380828437600081840152601f19601f82011690508083019250505050505050815260200187878080601f016020809104026020016040519081016040528093929190818152602001838380828437600081840152601f19601f820116905080830192505050505050508152602001856004811115611203576112026123c1565b5b81526020014281526020018381526020016001151581525090506000803373ffffffffffffffffffffffffffffffffffffffff1673ffffffffffffffffffffffffffffffffffffffff16815260200190815260200160002080549050600260003373ffffffffffffffffffffffffffffffffffffffff1673ffffffffffffffffffffffffffffffffffffffff16815260200190815260200160002060008b73ffffffffffffffffffffffffffffffffffffffff1673ffffffffffffffffffffffffffffffffffffffff168152602001908152602001600020819055506001600360003373ffffffffffffffffffffffffffffffffffffffff1673ffffffffffffffffffffffffffffffffffffffff16815260200190815260200160002060008b73ffffffffffffffffffffffffffffffffffffffff1673ffffffffffffffffffffffffffffffffffffffff16815260200190815260200160002060006101000a81548160ff0219169083151502179055506000803373ffffffffffffffffffffffffffffffffffffffff1673ffffffffffffffffffffffffffffffffffffffff16815260200190815260200160002081908060018154018082558091505060019003906000526020600020906007020160009091909190915060008201518160000160006101000a81548173ffffffffffffffffffffffffffffffffffffffff021916908373ffffffffffffffffffffffffffffffffffffffff1602179055506020820151816001019081611438919061308b565b50604082015181600201908161144e919061308b565b5060608201518160030160006101000a81548160ff0219169083600481111561147a576114796123c1565b5b02179055506080820151816004015560a0820151816005015560c08201518160060160006101000a81548160ff0219169083151502179055505050505b61151f33896040518060400160405280600c81526020017f4752414e545f41434345535300000000000000000000000000000000000000008152506114fb87611d49565b60405160200161150b91906131f5565b604051602081830303815290604052611f95565b8773ffffffffffffffffffffffffffffffffffffffff163373ffffffffffffffffffffffffffffffffffffffff167f3b04af5dc95353bc596c48500f93fc47e7dd3696d02fc82d07d281b6bf810adc858460405161157e929190613240565b60405180910390a35050505050505050565b600360003373ffffffffffffffffffffffffffffffffffffffff1673ffffffffffffffffffffffffffffffffffffffff16815260200190815260200160002060008373ffffffffffffffffffffffffffffffffffffffff1673ffffffffffffffffffffffffffffffffffffffff16815260200190815260200160002060009054906101000a900460ff16611659576040517f08c379a000000000000000000000000000000000000000000000000000000000815260040161165090612d71565b60405180910390fd5b6000808211156116805762015180826116729190612e69565b4261167d9190612eab565b90505b6000600260003373ffffffffffffffffffffffffffffffffffffffff1673ffffffffffffffffffffffffffffffffffffffff16815260200190815260200160002060008573ffffffffffffffffffffffffffffffffffffffff1673ffffffffffffffffffffffffffffffffffffffff168152602001908152602001600020549050816000803373ffffffffffffffffffffffffffffffffffffffff1673ffffffffffffffffffffffffffffffffffffffff168152602001908152602001600020828154811061175257611751612a54565b5b90600052602060002090600702016005018190555061184a33856040518060400160405280601181526020017f5550444154455f45585049524154494f4e000000000000000000000000000000815250600086146117e5576040518060400160405280601081526020017f65787069726520696e20646179733a200000000000000000000000000000000081525061181c565b6040518060400160405280600c81526020017f6e657665722065787069726500000000000000000000000000000000000000008152505b611825886120bf565b6040516020016118369291906132b5565b604051602081830303815290604052611f95565b50505050565b60606000600160003373ffffffffffffffffffffffffffffffffffffffff1673ffffffffffffffffffffffffffffffffffffffff16815260200190815260200160002090506000808414806118a85750818054905084115b6118b257836118b8565b81805490505b905060008167ffffffffffffffff8111156118d6576118d5612afa565b5b60405190808252806020026020018201604052801561190f57816020015b6118fc612286565b8152602001906001900390816118f45790505b50905060005b82811015611b135783816001868054905061193091906132e4565b61193a91906132e4565b8154811061194b5761194a612a54565b5b90600052602060002090600402016040518060800160405290816000820160009054906101000a900473ffffffffffffffffffffffffffffffffffffffff1673ffffffffffffffffffffffffffffffffffffffff1673ffffffffffffffffffffffffffffffffffffffff168152602001600182015481526020016002820180546119d490612b58565b80601f0160208091040260200160405190810160405280929190818152602001828054611a0090612b58565b8015611a4d5780601f10611a2257610100808354040283529160200191611a4d565b820191906000526020600020905b815481529060010190602001808311611a3057829003601f168201915b50505050508152602001600382018054611a6690612b58565b80601f0160208091040260200160405190810160405280929190818152602001828054611a9290612b58565b8015611adf5780601f10611ab457610100808354040283529160200191611adf565b820191906000526020600020905b815481529060010190602001808311611ac257829003601f168201915b505050505081525050828281518110611afb57611afa612a54565b5b60200260200101819052508080600101915050611915565b50809350505050919050565b60008060003373ffffffffffffffffffffffffffffffffffffffff1673ffffffffffffffffffffffffffffffffffffffff168152602001908152602001600020905060005b8180549050811015611d4357818181548110611b8357611b82612a54565b5b906000526020600020906007020160060160009054906101000a900460ff1615611d36576000828281548110611bbc57611bbb612a54565b5b906000526020600020906007020160060160006101000a81548160ff021916908315150217905550611c8a33838381548110611bfb57611bfa612a54565b5b906000526020600020906007020160000160009054906101000a900473ffffffffffffffffffffffffffffffffffffffff166040518060400160405280600d81526020017f5245564f4b455f414343455353000000000000000000000000000000000000008152508787604051602001611c76929190613389565b604051602081830303815290604052611f95565b818181548110611c9d57611c9c612a54565b5b906000526020600020906007020160000160009054906101000a900473ffffffffffffffffffffffffffffffffffffffff1673ffffffffffffffffffffffffffffffffffffffff163373ffffffffffffffffffffffffffffffffffffffff167f0a2382b7b0f44ee62df753c00034038c109332bf9b8f52418af74aa2859780fb8686604051611d2d929190612cdb565b60405180910390a35b8080600101915050611b64565b50505050565b606060006004811115611d5f57611d5e6123c1565b5b826004811115611d7257611d716123c1565b5b03611db4576040518060400160405280600781526020017f5245434f524453000000000000000000000000000000000000000000000000008152509050611f90565b60016004811115611dc857611dc76123c1565b5b826004811115611ddb57611dda6123c1565b5b03611e1d576040518060400160405280600d81526020017f505245534352495054494f4e53000000000000000000000000000000000000008152509050611f90565b60026004811115611e3157611e306123c1565b5b826004811115611e4457611e436123c1565b5b03611e86576040518060400160405280600b81526020017f444941474e4f53544943530000000000000000000000000000000000000000008152509050611f90565b60036004811115611e9a57611e996123c1565b5b826004811115611ead57611eac6123c1565b5b03611eef576040518060400160405280600981526020017f454d455247454e435900000000000000000000000000000000000000000000008152509050611f90565b600480811115611f0257611f016123c1565b5b826004811115611f1557611f146123c1565b5b03611f57576040518060400160405280600b81526020017f46554c4c5f4143434553530000000000000000000000000000000000000000008152509050611f90565b6040518060400160405280600781526020017f554e4b4e4f574e0000000000000000000000000000000000000000000000000081525090505b919050565b600060405180608001604052808573ffffffffffffffffffffffffffffffffffffffff168152602001428152602001848152602001838152509050600160008673ffffffffffffffffffffffffffffffffffffffff1673ffffffffffffffffffffffffffffffffffffffff16815260200190815260200160002081908060018154018082558091505060019003906000526020600020906004020160009091909190915060008201518160000160006101000a81548173ffffffffffffffffffffffffffffffffffffffff021916908373ffffffffffffffffffffffffffffffffffffffff16021790555060208201518160010155604082015181600201908161209f919061308b565b5060608201518160030190816120b5919061308b565b5050505050505050565b606060008203612106576040518060400160405280600181526020017f3000000000000000000000000000000000000000000000000000000000000000815250905061221a565b600082905060005b6000821461213857808061212190612ab2565b915050600a8261213191906133dc565b915061210e565b60008167ffffffffffffffff81111561215457612153612afa565b5b6040519080825280601f01601f1916602001820160405280156121865781602001600182028036833780820191505090505b5090505b600085146122135760018261219f91906132e4565b9150600a856121ae919061340d565b60306121ba9190612eab565b60f81b8183815181106121d0576121cf612a54565b5b60200101907effffffffffffffffffffffffffffffffffffffffffffffffffffffffffffff1916908160001a905350600a8561220c91906133dc565b945061218a565b8093505050505b919050565b6040518060e00160405280600073ffffffffffffffffffffffffffffffffffffffff168152602001606081526020016060815260200160006004811115612269576122686123c1565b5b815260200160008152602001600081526020016000151581525090565b6040518060800160405280600073ffffffffffffffffffffffffffffffffffffffff1681526020016000815260200160608152602001606081525090565b600081519050919050565b600082825260208201905092915050565b6000819050602082019050919050565b600073ffffffffffffffffffffffffffffffffffffffff82169050919050565b600061231b826122f0565b9050919050565b61232b81612310565b82525050565b600081519050919050565b600082825260208201905092915050565b60005b8381101561236b578082015181840152602081019050612350565b60008484015250505050565b6000601f19601f8301169050919050565b600061239382612331565b61239d818561233c565b93506123ad81856020860161234d565b6123b681612377565b840191505092915050565b7f4e487b7100000000000000000000000000000000000000000000000000000000600052602160045260246000fd5b60058110612401576124006123c1565b5b50565b6000819050612412826123f0565b919050565b600061242282612404565b9050919050565b61243281612417565b82525050565b6000819050919050565b61244b81612438565b82525050565b60008115159050919050565b61246681612451565b82525050565b600060e0830160008301516124846000860182612322565b506020830151848203602086015261249c8282612388565b915050604083015184820360408601526124b68282612388565b91505060608301516124cb6060860182612429565b5060808301516124de6080860182612442565b5060a08301516124f160a0860182612442565b5060c083015161250460c086018261245d565b508091505092915050565b600061251b838361246c565b905092915050565b6000602082019050919050565b600061253b826122c4565b61254581856122cf565b935083602082028501612557856122e0565b8060005b858110156125935784840389528151612574858261250f565b945061257f83612523565b925060208a0199505060018101905061255b565b50829750879550505050505092915050565b600060208201905081810360008301526125bf8184612530565b905092915050565b600080fd5b600080fd5b6125da81612310565b81146125e557600080fd5b50565b6000813590506125f7816125d1565b92915050565b6005811061260a57600080fd5b50565b60008135905061261c816125fd565b92915050565b60008060006060848603121561263b5761263a6125c7565b5b6000612649868287016125e8565b935050602061265a868287016125e8565b925050604061266b8682870161260d565b9150509250925092565b61267e81612451565b82525050565b60006020820190506126996000830184612675565b92915050565b600080fd5b600080fd5b600080fd5b60008083601f8401126126c4576126c361269f565b5b8235905067ffffffffffffffff8111156126e1576126e06126a4565b5b6020830191508360018202830111156126fd576126fc6126a9565b5b9250929050565b60008060006040848603121561271d5761271c6125c7565b5b600061272b868287016125e8565b935050602084013567ffffffffffffffff81111561274c5761274b6125cc565b5b612758868287016126ae565b92509250509250925092565b61276d81612438565b811461277857600080fd5b50565b60008135905061278a81612764565b92915050565b600080600080600080600060a0888a0312156127af576127ae6125c7565b5b60006127bd8a828b016125e8565b975050602088013567ffffffffffffffff8111156127de576127dd6125cc565b5b6127ea8a828b016126ae565b9650965050604088013567ffffffffffffffff81111561280d5761280c6125cc565b5b6128198a828b016126ae565b9450945050606061282c8a828b0161260d565b925050608061283d8a828b0161277b565b91505092959891949750929550565b60008060408385031215612863576128626125c7565b5b6000612871858286016125e8565b92505060206128828582860161277b565b9150509250929050565b6000602082840312156128a2576128a16125c7565b5b60006128b08482850161277b565b91505092915050565b600081519050919050565b600082825260208201905092915050565b6000819050602082019050919050565b60006080830160008301516128fd6000860182612322565b5060208301516129106020860182612442565b50604083015184820360408601526129288282612388565b915050606083015184820360608601526129428282612388565b9150508091505092915050565b600061295b83836128e5565b905092915050565b6000602082019050919050565b600061297b826128b9565b61298581856128c4565b935083602082028501612997856128d5565b8060005b858110156129d357848403895281516129b4858261294f565b94506129bf83612963565b925060208a0199505060018101905061299b565b50829750879550505050505092915050565b600060208201905081810360008301526129ff8184612970565b905092915050565b60008060208385031215612a1e57612a1d6125c7565b5b600083013567ffffffffffffffff811115612a3c57612a3b6125cc565b5b612a48858286016126ae565b92509250509250929050565b7f4e487b7100000000000000000000000000000000000000000000000000000000600052603260045260246000fd5b7f4e487b7100000000000000000000000000000000000000000000000000000000600052601160045260246000fd5b6000612abd82612438565b91507fffffffffffffffffffffffffffffffffffffffffffffffffffffffffffffffff8203612aef57612aee612a83565b5b600182019050919050565b7f4e487b7100000000000000000000000000000000000000000000000000000000600052604160045260246000fd5b7f4e487b7100000000000000000000000000000000000000000000000000000000600052602260045260246000fd5b60006002820490506001821680612b7057607f821691505b602082108103612b8357612b82612b29565b5b50919050565b600081905092915050565b7f4163636573736564200000000000000000000000000000000000000000000000600082015250565b6000612bca600983612b89565b9150612bd582612b94565b600982019050919050565b6000612beb82612331565b612bf58185612b89565b9350612c0581856020860161234d565b80840191505092915050565b6000612c1c82612bbd565b9150612c288284612be0565b915081905092915050565b600082825260208201905092915050565b6000612c4f82612331565b612c598185612c33565b9350612c6981856020860161234d565b612c7281612377565b840191505092915050565b60006020820190508181036000830152612c978184612c44565b905092915050565b82818337600083830152505050565b6000612cba8385612c33565b9350612cc7838584612c9f565b612cd083612377565b840190509392505050565b60006020820190508181036000830152612cf6818486612cae565b90509392505050565b7f4e6f20616374697665207065726d697373696f6e20666f72207468697320707260008201527f6f76696465720000000000000000000000000000000000000000000000000000602082015250565b6000612d5b602683612c33565b9150612d6682612cff565b604082019050919050565b60006020820190508181036000830152612d8a81612d4e565b9050919050565b7f496e76616c69642070726f766964657220616464726573730000000000000000600082015250565b6000612dc7601883612c33565b9150612dd282612d91565b602082019050919050565b60006020820190508181036000830152612df681612dba565b9050919050565b7f43616e6e6f74206772616e742061636365737320746f20796f757273656c6600600082015250565b6000612e33601f83612c33565b9150612e3e82612dfd565b602082019050919050565b60006020820190508181036000830152612e6281612e26565b9050919050565b6000612e7482612438565b9150612e7f83612438565b9250828202612e8d81612438565b91508282048414831517612ea457612ea3612a83565b5b5092915050565b6000612eb682612438565b9150612ec183612438565b9250828201905080821115612ed957612ed8612a83565b5b92915050565b60008190508160005260206000209050919050565b60006020601f8301049050919050565b600082821b905092915050565b600060088302612f417fffffffffffffffffffffffffffffffffffffffffffffffffffffffffffffffff82612f04565b612f4b8683612f04565b95508019841693508086168417925050509392505050565b6000819050919050565b6000612f88612f83612f7e84612438565b612f63565b612438565b9050919050565b6000819050919050565b612fa283612f6d565b612fb6612fae82612f8f565b848454612f11565b825550505050565b600090565b612fcb612fbe565b612fd6818484612f99565b505050565b5b81811015612ffa57612fef600082612fc3565b600181019050612fdc565b5050565b601f82111561303f5761301081612edf565b61301984612ef4565b81016020851015613028578190505b61303c61303485612ef4565b830182612fdb565b50505b505050565b600082821c905092915050565b600061306260001984600802613044565b1980831691505092915050565b600061307b8383613051565b9150826002028217905092915050565b61309482612331565b67ffffffffffffffff8111156130ad576130ac612afa565b5b6130b78254612b58565b6130c2828285612ffe565b600060209050601f8311600181146130f557600084156130e3578287015190505b6130ed858261306f565b865550613155565b601f19841661310386612edf565b60005b8281101561312b57848901518255600182019150602085019450602081019050613106565b868310156131485784890151613144601f891682613051565b8355505b6001600288020188555050505b505050505050565b7f4772616e74656420000000000000000000000000000000000000000000000000600082015250565b6000613193600883612b89565b915061319e8261315d565b600882019050919050565b7f2061636365737300000000000000000000000000000000000000000000000000600082015250565b60006131df600783612b89565b91506131ea826131a9565b600782019050919050565b600061320082613186565b915061320c8284612be0565b9150613217826131d2565b915081905092915050565b61322b81612417565b82525050565b61323a81612438565b82525050565b60006040820190506132556000830185613222565b6132626020830184613231565b9392505050565b7f55706461746564206163636573732065787069726174696f6e20746f20000000600082015250565b600061329f601d83612b89565b91506132aa82613269565b601d82019050919050565b60006132c082613292565b91506132cc8285612be0565b91506132d88284612be0565b91508190509392505050565b60006132ef82612438565b91506132fa83612438565b925082820390508181111561331257613311612a83565b5b92915050565b7f42756c6b207265766f636174696f6e3a20000000000000000000000000000000600082015250565b600061334e601183612b89565b915061335982613318565b601182019050919050565b60006133708385612b89565b935061337d838584612c9f565b82840190509392505050565b600061339482613341565b91506133a1828486613364565b91508190509392505050565b7f4e487b7100000000000000000000000000000000000000000000000000000000600052601260045260246000fd5b60006133e782612438565b91506133f283612438565b925082613402576134016133ad565b5b828204905092915050565b600061341882612438565b915061342383612438565b925082613433576134326133ad565b5b82820690509291505056fea264697066735822122064dfd1a7cd2747075ec4c8483f8be4e261c87ac77b71d3ef040a1b61c537e20c64736f6c634300081c0033",
  "linkReferences": {},
  "deployedLinkReferences": {}
}