{
  "_format": "hh-sol-artifact-1",
  "contractName": "MultiSigAccess",
  "sourceName": "contracts/MultiSigAccess.sol",
  "abi": [
    {
      "inputs": [
        {
          "internalType": "uint256",
          "name": "_requiredApprovals",
          "type": "uint256"
        }
      ],
      "stateMutability": "nonpayable",
      "type": "constructor"
    },
    {
      "anonymous": false,
      "inputs": [
        {
          "indexed": true,
          "internalType": "address",
          "name": "entity",
          "type": "address"
        }
      ],
      "name": "AccessGranted",
      "type": "event"
    },
    {
      "anonymous": false,
      "inputs": [
        {
          "indexed": true,
          "internalType": "address",
          "name": "entity",
          "type": "address"
        }
      ],
      "name": "AccessRevoked",
      "type": "event"
    },
    {
      "anonymous": false,
      "inputs": [
        {
          "indexed": true,
          "internalType": "address",
          "name": "approver",
          "type": "address"
        }
      ],
      "name": "ApproverAdded",
      "type": "event"
    },
    {
      "anonymous": false,
      "inputs": [
        {
          "indexed": true,
          "internalType": "address",
          "name": "approver",
          "type": "address"
        }
      ],
      "name": "ApproverRemoved",
      "type": "event"
    },
    {
      "inputs": [
        {
          "internalType": "address",
          "name": "_approver",
          "type": "address"
        }
      ],
      "name": "addApprover",
      "outputs": [],
      "stateMutability": "nonpayable",
      "type": "function"
    },
    {
      "inputs": [],
      "name": "approverCount",
      "outputs": [
        {
          "internalType": "uint256",
          "name": "",
          "type": "uint256"
        }
      ],
      "stateMutability": "view",
      "type": "function"
    },
    {
      "inputs": [
        {
          "internalType": "address",
          "name": "",
          "type": "address"
        }
      ],
      "name": "approvers",
      "outputs": [
        {
          "internalType": "bool",
          "name": "",
          "type": "bool"
        }
      ],
      "stateMutability": "view",
      "type": "function"
    },
    {
      "inputs": [
        {
          "internalType": "address",
          "name": "",
          "type": "address"
        }
      ],
      "name": "authorizedEntities",
      "outputs": [
        {
          "internalType": "bool",
          "name": "",
          "type": "bool"
        }
      ],
      "stateMutability": "view",
      "type": "function"
    },
    {
      "inputs": [
        {
          "internalType": "address",
          "name": "_entity",
          "type": "address"
        }
      ],
      "name": "grantAccess",
      "outputs": [],
      "stateMutability": "nonpayable",
      "type": "function"
    },
    {
      "inputs": [
        {
          "internalType": "address",
          "name": "_entity",
          "type": "address"
        }
      ],
      "name": "hasAccess",
      "outputs": [
        {
          "internalType": "bool",
          "name": "",
          "type": "bool"
        }
      ],
      "stateMutability": "view",
      "type": "function"
    },
    {
      "inputs": [],
      "name": "patient",
      "outputs": [
        {
          "internalType": "address",
          "name": "",
          "type": "address"
        }
      ],
      "stateMutability": "view",
      "type": "function"
    },
    {
      "inputs": [
        {
          "internalType": "address",
          "name": "_approver",
          "type": "address"
        }
      ],
      "name": "removeApprover",
      "outputs": [],
      "stateMutability": "nonpayable",
      "type": "function"
    },
    {
      "inputs": [],
      "name": "requiredApprovals",
      "outputs": [
        {
          "internalType": "uint256",
          "name": "",
          "type": "uint256"
        }
      ],
      "stateMutability": "view",
      "type": "function"
    },
    {
      "inputs": [
        {
          "internalType": "address",
          "name": "_entity",
          "type": "address"
        }
      ],
      "name": "revokeAccess",
      "outputs": [],
      "stateMutability": "nonpayable",
      "type": "function"
    }
  ],
  "bytecode": "0x6080604052348015600f57600080fd5b506040516110703803806110708339818101604052810190602f919060b1565b336000806101000a81548173ffffffffffffffffffffffffffffffffffffffff021916908373ffffffffffffffffffffffffffffffffffffffff160217905550806002819055505060d9565b600080fd5b6000819050919050565b6091816080565b8114609b57600080fd5b50565b60008151905060ab81608a565b92915050565b60006020828403121560c45760c3607b565b5b600060d084828501609e565b91505092915050565b610f88806100e86000396000f3fe608060405234801561001057600080fd5b506004361061009e5760003560e01c806385e685311161006657806385e685311461015957806395a078e81461017557806399c1aadc146101a5578063b646c194146101c3578063bd96bd20146101df5761009e565b80630a144391146100a35780630ae5e739146100d3578063128e9be6146100ef57806333616eee1461010d5780636cf4c88f1461013d575b600080fd5b6100bd60048036038101906100b89190610a7a565b6101fd565b6040516100ca9190610ac2565b60405180910390f35b6100ed60048036038101906100e89190610a7a565b61021d565b005b6100f761041a565b6040516101049190610af6565b60405180910390f35b61012760048036038101906101229190610a7a565b610420565b6040516101349190610ac2565b60405180910390f35b61015760048036038101906101529190610a7a565b610440565b005b610173600480360381019061016e9190610a7a565b610610565b005b61018f600480360381019061018a9190610a7a565b6107c6565b60405161019c9190610ac2565b60405180910390f35b6101ad61081c565b6040516101ba9190610af6565b60405180910390f35b6101dd60048036038101906101d89190610a7a565b610822565b005b6101e76109f3565b6040516101f49190610b20565b60405180910390f35b60036020528060005260406000206000915054906101000a900460ff1681565b600360003373ffffffffffffffffffffffffffffffffffffffff1673ffffffffffffffffffffffffffffffffffffffff16815260200190815260200160002060009054906101000a900460ff166102a9576040517f08c379a00000000000000000000000000000000000000000000000000000000081526004016102a090610bbe565b60405180910390fd5b600160008273ffffffffffffffffffffffffffffffffffffffff1673ffffffffffffffffffffffffffffffffffffffff16815260200190815260200160002060009054906101000a900460ff1615610336576040517f08c379a000000000000000000000000000000000000000000000000000000000815260040161032d90610c2a565b60405180910390fd5b600254600454101561037d576040517f08c379a000000000000000000000000000000000000000000000000000000000815260040161037490610cbc565b60405180910390fd5b60018060008373ffffffffffffffffffffffffffffffffffffffff1673ffffffffffffffffffffffffffffffffffffffff16815260200190815260200160002060006101000a81548160ff0219169083151502179055508073ffffffffffffffffffffffffffffffffffffffff167fdeb5c31899474fe8c086c95ff9344480d19365676a6a1d22d37bb8e3e7c0ef1860405160405180910390a250565b60045481565b60016020528060005260406000206000915054906101000a900460ff1681565b60008054906101000a900473ffffffffffffffffffffffffffffffffffffffff1673ffffffffffffffffffffffffffffffffffffffff163373ffffffffffffffffffffffffffffffffffffffff16146104ce576040517f08c379a00000000000000000000000000000000000000000000000000000000081526004016104c590610d4e565b60405180910390fd5b600360008273ffffffffffffffffffffffffffffffffffffffff1673ffffffffffffffffffffffffffffffffffffffff16815260200190815260200160002060009054906101000a900460ff1661055a576040517f08c379a000000000000000000000000000000000000000000000000000000000815260040161055190610dba565b60405180910390fd5b6000600360008373ffffffffffffffffffffffffffffffffffffffff1673ffffffffffffffffffffffffffffffffffffffff16815260200190815260200160002060006101000a81548160ff021916908315150217905550600460008154809291906105c590610e09565b91905055508073ffffffffffffffffffffffffffffffffffffffff167fc6e35658c76ecdde40a54f31a91fb7c8615e9893cc0885584b27bb3433270d4660405160405180910390a250565b600360003373ffffffffffffffffffffffffffffffffffffffff1673ffffffffffffffffffffffffffffffffffffffff16815260200190815260200160002060009054906101000a900460ff1661069c576040517f08c379a000000000000000000000000000000000000000000000000000000000815260040161069390610bbe565b60405180910390fd5b600160008273ffffffffffffffffffffffffffffffffffffffff1673ffffffffffffffffffffffffffffffffffffffff16815260200190815260200160002060009054906101000a900460ff16610728576040517f08c379a000000000000000000000000000000000000000000000000000000000815260040161071f90610e7e565b60405180910390fd5b6000600160008373ffffffffffffffffffffffffffffffffffffffff1673ffffffffffffffffffffffffffffffffffffffff16815260200190815260200160002060006101000a81548160ff0219169083151502179055508073ffffffffffffffffffffffffffffffffffffffff167f1b9b72fde9da721e70e6aca3b0cf4cbe73e82765ef1f280157740376531bfdd860405160405180910390a250565b6000600160008373ffffffffffffffffffffffffffffffffffffffff1673ffffffffffffffffffffffffffffffffffffffff16815260200190815260200160002060009054906101000a900460ff169050919050565b60025481565b60008054906101000a900473ffffffffffffffffffffffffffffffffffffffff1673ffffffffffffffffffffffffffffffffffffffff163373ffffffffffffffffffffffffffffffffffffffff16146108b0576040517f08c379a00000000000000000000000000000000000000000000000000000000081526004016108a790610d4e565b60405180910390fd5b600360008273ffffffffffffffffffffffffffffffffffffffff1673ffffffffffffffffffffffffffffffffffffffff16815260200190815260200160002060009054906101000a900460ff161561093d576040517f08c379a000000000000000000000000000000000000000000000000000000000815260040161093490610eea565b60405180910390fd5b6001600360008373ffffffffffffffffffffffffffffffffffffffff1673ffffffffffffffffffffffffffffffffffffffff16815260200190815260200160002060006101000a81548160ff021916908315150217905550600460008154809291906109a890610f0a565b91905055508073ffffffffffffffffffffffffffffffffffffffff167f835bddf1ceee4956e4329af9edf018523c1191238187a597453f6020bcadb04260405160405180910390a250565b60008054906101000a900473ffffffffffffffffffffffffffffffffffffffff1681565b600080fd5b600073ffffffffffffffffffffffffffffffffffffffff82169050919050565b6000610a4782610a1c565b9050919050565b610a5781610a3c565b8114610a6257600080fd5b50565b600081359050610a7481610a4e565b92915050565b600060208284031215610a9057610a8f610a17565b5b6000610a9e84828501610a65565b91505092915050565b60008115159050919050565b610abc81610aa7565b82525050565b6000602082019050610ad76000830184610ab3565b92915050565b6000819050919050565b610af081610add565b82525050565b6000602082019050610b0b6000830184610ae7565b92915050565b610b1a81610a3c565b82525050565b6000602082019050610b356000830184610b11565b92915050565b600082825260208201905092915050565b7f4f6e6c7920616e20617070726f7665722063616e20706572666f726d2074686960008201527f7320616374696f6e000000000000000000000000000000000000000000000000602082015250565b6000610ba8602883610b3b565b9150610bb382610b4c565b604082019050919050565b60006020820190508181036000830152610bd781610b9b565b9050919050565b7f456e7469747920616c7265616479206861732061636365737300000000000000600082015250565b6000610c14601983610b3b565b9150610c1f82610bde565b602082019050919050565b60006020820190508181036000830152610c4381610c07565b9050919050565b7f4e6f7420656e6f75676820617070726f76616c7320746f206772616e7420616360008201527f6365737300000000000000000000000000000000000000000000000000000000602082015250565b6000610ca6602483610b3b565b9150610cb182610c4a565b604082019050919050565b60006020820190508181036000830152610cd581610c99565b9050919050565b7f4f6e6c79207468652070617469656e742063616e20706572666f726d2074686960008201527f7320616374696f6e000000000000000000000000000000000000000000000000602082015250565b6000610d38602883610b3b565b9150610d4382610cdc565b604082019050919050565b60006020820190508181036000830152610d6781610d2b565b9050919050565b7f417070726f76657220646f6573206e6f74206578697374000000000000000000600082015250565b6000610da4601783610b3b565b9150610daf82610d6e565b602082019050919050565b60006020820190508181036000830152610dd381610d97565b9050919050565b7f4e487b7100000000000000000000000000000000000000000000000000000000600052601160045260246000fd5b6000610e1482610add565b915060008203610e2757610e26610dda565b5b600182039050919050565b7f456e7469747920646f6573206e6f742068617665206163636573730000000000600082015250565b6000610e68601b83610b3b565b9150610e7382610e32565b602082019050919050565b60006020820190508181036000830152610e9781610e5b565b9050919050565b7f417070726f76657220616c726561647920657869737473000000000000000000600082015250565b6000610ed4601783610b3b565b9150610edf82610e9e565b602082019050919050565b60006020820190508181036000830152610f0381610ec7565b9050919050565b6000610f1582610add565b91507fffffffffffffffffffffffffffffffffffffffffffffffffffffffffffffffff8203610f4757610f46610dda565b5b60018201905091905056fea26469706673582212202c2faa3d328cd72d74baebcd356d4eef03b406ee87a11167508fdc9291d2ce1a64736f6c634300081c0033",
  "linkReferences": {},
  "deployedLinkReferences": {}
}