{
  "_format": "hh-sol-artifact-1",
  "contractName": "DiagnosticControl",
  "sourceName": "contracts/DiagnosticControl.sol",
  "abi": [
    {
      "inputs": [],
      "stateMutability": "nonpayable",
      "type": "constructor"
    },
    {
      "anonymous": false,
      "inputs": [
        {
          "indexed": true,
          "internalType": "address",
          "name": "center",
          "type": "address"
        }
      ],
      "name": "CenterAuthorized",
      "type": "event"
    },
    {
      "anonymous": false,
      "inputs": [
        {
          "indexed": true,
          "internalType": "address",
          "name": "center",
          "type": "address"
        }
      ],
      "name": "CenterDeauthorized",
      "type": "event"
    },
    {
      "anonymous": false,
      "inputs": [
        {
          "indexed": true,
          "internalType": "address",
          "name": "center",
          "type": "address"
        },
        {
          "indexed": true,
          "internalType": "address",
          "name": "patient",
          "type": "address"
        },
        {
          "indexed": false,
          "internalType": "bool",
          "name": "authorized",
          "type": "bool"
        }
      ],
      "name": "CenterPatientAuthorizationChanged",
      "type": "event"
    },
    {
      "anonymous": false,
      "inputs": [
        {
          "indexed": true,
          "internalType": "address",
          "name": "center",
          "type": "address"
        },
        {
          "indexed": true,
          "internalType": "address",
          "name": "patient",
          "type": "address"
        },
        {
          "indexed": false,
          "internalType": "string",
          "name": "reportHash",
          "type": "string"
        },
        {
          "indexed": false,
          "internalType": "uint256",
          "name": "timestamp",
          "type": "uint256"
        }
      ],
      "name": "ReportAdded",
      "type": "event"
    },
    {
      "anonymous": false,
      "inputs": [
        {
          "indexed": true,
          "internalType": "address",
          "name": "center",
          "type": "address"
        },
        {
          "indexed": true,
          "internalType": "address",
          "name": "patient",
          "type": "address"
        },
        {
          "indexed": false,
          "internalType": "uint256",
          "name": "timestamp",
          "type": "uint256"
        }
      ],
      "name": "ReportViewed",
      "type": "event"
    },
    {
      "inputs": [
        {
          "internalType": "address",
          "name": "patient",
          "type": "address"
        },
        {
          "internalType": "string",
          "name": "reportHash",
          "type": "string"
        },
        {
          "internalType": "string",
          "name": "reportMetadata",
          "type": "string"
        }
      ],
      "name": "addDiagnosticReport",
      "outputs": [],
      "stateMutability": "nonpayable",
      "type": "function"
    },
    {
      "inputs": [
        {
          "internalType": "address",
          "name": "center",
          "type": "address"
        }
      ],
      "name": "authorizeCenterForPatient",
      "outputs": [],
      "stateMutability": "nonpayable",
      "type": "function"
    },
    {
      "inputs": [
        {
          "internalType": "address",
          "name": "center",
          "type": "address"
        }
      ],
      "name": "authorizeDiagnosticCenter",
      "outputs": [],
      "stateMutability": "nonpayable",
      "type": "function"
    },
    {
      "inputs": [
        {
          "internalType": "address",
          "name": "center",
          "type": "address"
        }
      ],
      "name": "deauthorizeCenterForPatient",
      "outputs": [],
      "stateMutability": "nonpayable",
      "type": "function"
    },
    {
      "inputs": [
        {
          "internalType": "address",
          "name": "center",
          "type": "address"
        }
      ],
      "name": "deauthorizeDiagnosticCenter",
      "outputs": [],
      "stateMutability": "nonpayable",
      "type": "function"
    },
    {
      "inputs": [
        {
          "internalType": "address",
          "name": "center",
          "type": "address"
        }
      ],
      "name": "isCenterAuthorized",
      "outputs": [
        {
          "internalType": "bool",
          "name": "",
          "type": "bool"
        }
      ],
      "stateMutability": "view",
      "type": "function"
    },
    {
      "inputs": [
        {
          "internalType": "address",
          "name": "center",
          "type": "address"
        },
        {
          "internalType": "address",
          "name": "patient",
          "type": "address"
        }
      ],
      "name": "isCenterAuthorizedForPatient",
      "outputs": [
        {
          "internalType": "bool",
          "name": "",
          "type": "bool"
        }
      ],
      "stateMutability": "view",
      "type": "function"
    },
    {
      "inputs": [],
      "name": "owner",
      "outputs": [
        {
          "internalType": "address",
          "name": "",
          "type": "address"
        }
      ],
      "stateMutability": "view",
      "type": "function"
    },
    {
      "inputs": [],
      "name": "renounceOwnership",
      "outputs": [],
      "stateMutability": "nonpayable",
      "type": "function"
    },
    {
      "inputs": [],
      "name": "viewMyReports",
      "outputs": [
        {
          "components": [
            {
              "internalType": "string",
              "name": "reportHash",
              "type": "string"
            },
            {
              "internalType": "string",
              "name": "reportMetadata",
              "type": "string"
            },
            {
              "internalType": "uint256",
              "name": "timestamp",
              "type": "uint256"
            },
            {
              "internalType": "address",
              "name": "diagnosticCenter",
              "type": "address"
            },
            {
              "internalType": "bool",
              "name": "isActive",
              "type": "bool"
            }
          ],
          "internalType": "struct DiagnosticControl.DiagnosticReport[]",
          "name": "",
          "type": "tuple[]"
        }
      ],
      "stateMutability": "view",
      "type": "function"
    },
    {
      "inputs": [
        {
          "internalType": "address",
          "name": "patient",
          "type": "address"
        }
      ],
      "name": "viewPatientReports",
      "outputs": [
        {
          "components": [
            {
              "internalType": "string",
              "name": "reportHash",
              "type": "string"
            },
            {
              "internalType": "string",
              "name": "reportMetadata",
              "type": "string"
            },
            {
              "internalType": "uint256",
              "name": "timestamp",
              "type": "uint256"
            },
            {
              "internalType": "address",
              "name": "diagnosticCenter",
              "type": "address"
            },
            {
              "internalType": "bool",
              "name": "isActive",
              "type": "bool"
            }
          ],
          "internalType": "struct DiagnosticControl.DiagnosticReport[]",
          "name": "",
          "type": "tuple[]"
        }
      ],
      "stateMutability": "nonpayable",
      "type": "function"
    }
  ],
  "bytecode": "0x6080604052348015600f57600080fd5b5033600360006101000a81548173ffffffffffffffffffffffffffffffffffffffff021916908373ffffffffffffffffffffffffffffffffffffffff1602179055506121c9806100606000396000f3fe608060405234801561001057600080fd5b50600436106100a95760003560e01c8063715018a611610071578063715018a6146101625780638da5cb5b1461016c5780639024a9e11461018a578063a0bac43f146101a8578063c8fac31f146101c4578063f8eabc97146101e0576100a9565b806311295b83146100ae578063132d1f6b146100de578063137ca1051461010e5780631db291131461012a5780633740790b14610146575b600080fd5b6100c860048036038101906100c391906115f6565b610210565b6040516100d5919061163e565b60405180910390f35b6100f860048036038101906100f391906115f6565b610266565b604051610105919061185f565b60405180910390f35b610128600480360381019061012391906115f6565b6106ec565b005b610144600480360381019061013f91906115f6565b6107ea565b005b610160600480360381019061015b91906118e6565b6109a4565b005b61016a610e13565b005b610174610ee7565b604051610181919061198a565b60405180910390f35b610192610f0d565b60405161019f919061185f565b60405180910390f35b6101c260048036038101906101bd91906115f6565b611147565b005b6101de60048036038101906101d991906115f6565b611370565b005b6101fa60048036038101906101f591906119a5565b6114fa565b604051610207919061163e565b60405180910390f35b6000600160008373ffffffffffffffffffffffffffffffffffffffff1673ffffffffffffffffffffffffffffffffffffffff16815260200190815260200160002060009054906101000a900460ff169050919050565b6060600160003373ffffffffffffffffffffffffffffffffffffffff1673ffffffffffffffffffffffffffffffffffffffff16815260200190815260200160002060009054906101000a900460ff166102f4576040517f08c379a00000000000000000000000000000000000000000000000000000000081526004016102eb90611a68565b60405180910390fd5b81600260003373ffffffffffffffffffffffffffffffffffffffff1673ffffffffffffffffffffffffffffffffffffffff16815260200190815260200160002060008273ffffffffffffffffffffffffffffffffffffffff1673ffffffffffffffffffffffffffffffffffffffff16815260200190815260200160002060009054906101000a900460ff16806103b557508073ffffffffffffffffffffffffffffffffffffffff163373ffffffffffffffffffffffffffffffffffffffff16145b8061040d5750600360009054906101000a900473ffffffffffffffffffffffffffffffffffffffff1673ffffffffffffffffffffffffffffffffffffffff163373ffffffffffffffffffffffffffffffffffffffff16145b61044c576040517f08c379a000000000000000000000000000000000000000000000000000000000815260040161044390611afa565b60405180910390fd5b8273ffffffffffffffffffffffffffffffffffffffff163373ffffffffffffffffffffffffffffffffffffffff167f7f83eb68520a5a6aa4371a4b285dc8a2693a4d010d5d58039ff3d403b213884e426040516104a99190611b29565b60405180910390a36000808473ffffffffffffffffffffffffffffffffffffffff1673ffffffffffffffffffffffffffffffffffffffff168152602001908152602001600020805480602002602001604051908101604052809291908181526020016000905b828210156106e057838290600052602060002090600402016040518060a001604052908160008201805461054290611b73565b80601f016020809104026020016040519081016040528092919081815260200182805461056e90611b73565b80156105bb5780601f10610590576101008083540402835291602001916105bb565b820191906000526020600020905b81548152906001019060200180831161059e57829003601f168201915b505050505081526020016001820180546105d490611b73565b80601f016020809104026020016040519081016040528092919081815260200182805461060090611b73565b801561064d5780601f106106225761010080835404028352916020019161064d565b820191906000526020600020905b81548152906001019060200180831161063057829003601f168201915b50505050508152602001600282015481526020016003820160009054906101000a900473ffffffffffffffffffffffffffffffffffffffff1673ffffffffffffffffffffffffffffffffffffffff1673ffffffffffffffffffffffffffffffffffffffff1681526020016003820160149054906101000a900460ff1615151515815250508152602001906001019061050f565b50505050915050919050565b6000600260008373ffffffffffffffffffffffffffffffffffffffff1673ffffffffffffffffffffffffffffffffffffffff16815260200190815260200160002060003373ffffffffffffffffffffffffffffffffffffffff1673ffffffffffffffffffffffffffffffffffffffff16815260200190815260200160002060006101000a81548160ff0219169083151502179055503373ffffffffffffffffffffffffffffffffffffffff168173ffffffffffffffffffffffffffffffffffffffff167f51706a1b615cc7d0b0f5a1687693366c42231a6203539f0967959f1922f6306460006040516107df919061163e565b60405180910390a350565b600360009054906101000a900473ffffffffffffffffffffffffffffffffffffffff1673ffffffffffffffffffffffffffffffffffffffff163373ffffffffffffffffffffffffffffffffffffffff161461087a576040517f08c379a000000000000000000000000000000000000000000000000000000000815260040161087190611c16565b60405180910390fd5b600160008273ffffffffffffffffffffffffffffffffffffffff1673ffffffffffffffffffffffffffffffffffffffff16815260200190815260200160002060009054906101000a900460ff16610906576040517f08c379a00000000000000000000000000000000000000000000000000000000081526004016108fd90611c82565b60405180910390fd5b6000600160008373ffffffffffffffffffffffffffffffffffffffff1673ffffffffffffffffffffffffffffffffffffffff16815260200190815260200160002060006101000a81548160ff0219169083151502179055508073ffffffffffffffffffffffffffffffffffffffff167fe83fcfff4c4c2e294d88b6f5c289dc41d8457e391f7a3941826a4775834e780260405160405180910390a250565b600160003373ffffffffffffffffffffffffffffffffffffffff1673ffffffffffffffffffffffffffffffffffffffff16815260200190815260200160002060009054906101000a900460ff16610a30576040517f08c379a0000000000000000000000000000000000000000000000000000000008152600401610a2790611a68565b60405180910390fd5b84600260003373ffffffffffffffffffffffffffffffffffffffff1673ffffffffffffffffffffffffffffffffffffffff16815260200190815260200160002060008273ffffffffffffffffffffffffffffffffffffffff1673ffffffffffffffffffffffffffffffffffffffff16815260200190815260200160002060009054906101000a900460ff1680610af157508073ffffffffffffffffffffffffffffffffffffffff163373ffffffffffffffffffffffffffffffffffffffff16145b80610b495750600360009054906101000a900473ffffffffffffffffffffffffffffffffffffffff1673ffffffffffffffffffffffffffffffffffffffff163373ffffffffffffffffffffffffffffffffffffffff16145b610b88576040517f08c379a0000000000000000000000000000000000000000000000000000000008152600401610b7f90611afa565b60405180910390fd5b60008585905011610bce576040517f08c379a0000000000000000000000000000000000000000000000000000000008152600401610bc590611cee565b60405180910390fd5b60006040518060a0016040528087878080601f016020809104026020016040519081016040528093929190818152602001838380828437600081840152601f19601f82011690508083019250505050505050815260200185858080601f016020809104026020016040519081016040528093929190818152602001838380828437600081840152601f19601f8201169050808301925050505050505081526020014281526020013373ffffffffffffffffffffffffffffffffffffffff1681526020016001151581525090506000808873ffffffffffffffffffffffffffffffffffffffff1673ffffffffffffffffffffffffffffffffffffffff1681526020019081526020016000208190806001815401808255809150506001900390600052602060002090600402016000909190919091506000820151816000019081610d179190611ee9565b506020820151816001019081610d2d9190611ee9565b506040820151816002015560608201518160030160006101000a81548173ffffffffffffffffffffffffffffffffffffffff021916908373ffffffffffffffffffffffffffffffffffffffff16021790555060808201518160030160146101000a81548160ff02191690831515021790555050508673ffffffffffffffffffffffffffffffffffffffff163373ffffffffffffffffffffffffffffffffffffffff167fd4ace5ccb8ed68e534af3bf565b2023205c071d18b062f0259a0f7f644c1ab04888842604051610e0293929190611ff7565b60405180910390a350505050505050565b600360009054906101000a900473ffffffffffffffffffffffffffffffffffffffff1673ffffffffffffffffffffffffffffffffffffffff163373ffffffffffffffffffffffffffffffffffffffff1614610ea3576040517f08c379a0000000000000000000000000000000000000000000000000000000008152600401610e9a90611c16565b60405180910390fd5b6000600360006101000a81548173ffffffffffffffffffffffffffffffffffffffff021916908373ffffffffffffffffffffffffffffffffffffffff160217905550565b600360009054906101000a900473ffffffffffffffffffffffffffffffffffffffff1681565b60606000803373ffffffffffffffffffffffffffffffffffffffff1673ffffffffffffffffffffffffffffffffffffffff168152602001908152602001600020805480602002602001604051908101604052809291908181526020016000905b8282101561113e57838290600052602060002090600402016040518060a0016040529081600082018054610fa090611b73565b80601f0160208091040260200160405190810160405280929190818152602001828054610fcc90611b73565b80156110195780601f10610fee57610100808354040283529160200191611019565b820191906000526020600020905b815481529060010190602001808311610ffc57829003601f168201915b5050505050815260200160018201805461103290611b73565b80601f016020809104026020016040519081016040528092919081815260200182805461105e90611b73565b80156110ab5780601f10611080576101008083540402835291602001916110ab565b820191906000526020600020905b81548152906001019060200180831161108e57829003601f168201915b50505050508152602001600282015481526020016003820160009054906101000a900473ffffffffffffffffffffffffffffffffffffffff1673ffffffffffffffffffffffffffffffffffffffff1673ffffffffffffffffffffffffffffffffffffffff1681526020016003820160149054906101000a900460ff16151515158152505081526020019060010190610f6d565b50505050905090565b600360009054906101000a900473ffffffffffffffffffffffffffffffffffffffff1673ffffffffffffffffffffffffffffffffffffffff163373ffffffffffffffffffffffffffffffffffffffff16146111d7576040517f08c379a00000000000000000000000000000000000000000000000000000000081526004016111ce90611c16565b60405180910390fd5b600073ffffffffffffffffffffffffffffffffffffffff168173ffffffffffffffffffffffffffffffffffffffff1603611246576040517f08c379a000000000000000000000000000000000000000000000000000000000815260040161123d90612075565b60405180910390fd5b600160008273ffffffffffffffffffffffffffffffffffffffff1673ffffffffffffffffffffffffffffffffffffffff16815260200190815260200160002060009054906101000a900460ff16156112d3576040517f08c379a00000000000000000000000000000000000000000000000000000000081526004016112ca906120e1565b60405180910390fd5b60018060008373ffffffffffffffffffffffffffffffffffffffff1673ffffffffffffffffffffffffffffffffffffffff16815260200190815260200160002060006101000a81548160ff0219169083151502179055508073ffffffffffffffffffffffffffffffffffffffff167f2f410d1e1efe2be9ac8a5d46afc5f9fdd8c50751bf420ddaad174a6bc6b8cc4660405160405180910390a250565b600160008273ffffffffffffffffffffffffffffffffffffffff1673ffffffffffffffffffffffffffffffffffffffff16815260200190815260200160002060009054906101000a900460ff166113fc576040517f08c379a00000000000000000000000000000000000000000000000000000000081526004016113f390612173565b60405180910390fd5b6001600260008373ffffffffffffffffffffffffffffffffffffffff1673ffffffffffffffffffffffffffffffffffffffff16815260200190815260200160002060003373ffffffffffffffffffffffffffffffffffffffff1673ffffffffffffffffffffffffffffffffffffffff16815260200190815260200160002060006101000a81548160ff0219169083151502179055503373ffffffffffffffffffffffffffffffffffffffff168173ffffffffffffffffffffffffffffffffffffffff167f51706a1b615cc7d0b0f5a1687693366c42231a6203539f0967959f1922f6306460016040516114ef919061163e565b60405180910390a350565b6000600260008473ffffffffffffffffffffffffffffffffffffffff1673ffffffffffffffffffffffffffffffffffffffff16815260200190815260200160002060008373ffffffffffffffffffffffffffffffffffffffff1673ffffffffffffffffffffffffffffffffffffffff16815260200190815260200160002060009054906101000a900460ff16905092915050565b600080fd5b600080fd5b600073ffffffffffffffffffffffffffffffffffffffff82169050919050565b60006115c382611598565b9050919050565b6115d3816115b8565b81146115de57600080fd5b50565b6000813590506115f0816115ca565b92915050565b60006020828403121561160c5761160b61158e565b5b600061161a848285016115e1565b91505092915050565b60008115159050919050565b61163881611623565b82525050565b6000602082019050611653600083018461162f565b92915050565b600081519050919050565b600082825260208201905092915050565b6000819050602082019050919050565b600081519050919050565b600082825260208201905092915050565b60005b838110156116bf5780820151818401526020810190506116a4565b60008484015250505050565b6000601f19601f8301169050919050565b60006116e782611685565b6116f18185611690565b93506117018185602086016116a1565b61170a816116cb565b840191505092915050565b6000819050919050565b61172881611715565b82525050565b611737816115b8565b82525050565b61174681611623565b82525050565b600060a083016000830151848203600086015261176982826116dc565b9150506020830151848203602086015261178382826116dc565b9150506040830151611798604086018261171f565b5060608301516117ab606086018261172e565b5060808301516117be608086018261173d565b508091505092915050565b60006117d5838361174c565b905092915050565b6000602082019050919050565b60006117f582611659565b6117ff8185611664565b93508360208202850161181185611675565b8060005b8581101561184d578484038952815161182e85826117c9565b9450611839836117dd565b925060208a01995050600181019050611815565b50829750879550505050505092915050565b6000602082019050818103600083015261187981846117ea565b905092915050565b600080fd5b600080fd5b600080fd5b60008083601f8401126118a6576118a5611881565b5b8235905067ffffffffffffffff8111156118c3576118c2611886565b5b6020830191508360018202830111156118df576118de61188b565b5b9250929050565b6000806000806000606086880312156119025761190161158e565b5b6000611910888289016115e1565b955050602086013567ffffffffffffffff81111561193157611930611593565b5b61193d88828901611890565b9450945050604086013567ffffffffffffffff8111156119605761195f611593565b5b61196c88828901611890565b92509250509295509295909350565b611984816115b8565b82525050565b600060208201905061199f600083018461197b565b92915050565b600080604083850312156119bc576119bb61158e565b5b60006119ca858286016115e1565b92505060206119db858286016115e1565b9150509250929050565b600082825260208201905092915050565b7f4f6e6c7920617574686f72697a656420646961676e6f737469632063656e746560008201527f72732063616e20706572666f726d207468697320616374696f6e000000000000602082015250565b6000611a52603a836119e5565b9150611a5d826119f6565b604082019050919050565b60006020820190508181036000830152611a8181611a45565b9050919050565b7f43656e746572206e6f7420617574686f72697a656420666f722074686973207060008201527f617469656e740000000000000000000000000000000000000000000000000000602082015250565b6000611ae46026836119e5565b9150611aef82611a88565b604082019050919050565b60006020820190508181036000830152611b1381611ad7565b9050919050565b611b2381611715565b82525050565b6000602082019050611b3e6000830184611b1a565b92915050565b7f4e487b7100000000000000000000000000000000000000000000000000000000600052602260045260246000fd5b60006002820490506001821680611b8b57607f821691505b602082108103611b9e57611b9d611b44565b5b50919050565b7f4f6e6c79206f776e65722063616e20706572666f726d2074686973206163746960008201527f6f6e000000000000000000000000000000000000000000000000000000000000602082015250565b6000611c006022836119e5565b9150611c0b82611ba4565b604082019050919050565b60006020820190508181036000830152611c2f81611bf3565b9050919050565b7f43656e746572206973206e6f7420617574686f72697a65640000000000000000600082015250565b6000611c6c6018836119e5565b9150611c7782611c36565b602082019050919050565b60006020820190508181036000830152611c9b81611c5f565b9050919050565b7f5265706f727420686173682063616e6e6f7420626520656d7074790000000000600082015250565b6000611cd8601b836119e5565b9150611ce382611ca2565b602082019050919050565b60006020820190508181036000830152611d0781611ccb565b9050919050565b7f4e487b7100000000000000000000000000000000000000000000000000000000600052604160045260246000fd5b60008190508160005260206000209050919050565b60006020601f8301049050919050565b600082821b905092915050565b600060088302611d9f7fffffffffffffffffffffffffffffffffffffffffffffffffffffffffffffffff82611d62565b611da98683611d62565b95508019841693508086168417925050509392505050565b6000819050919050565b6000611de6611de1611ddc84611715565b611dc1565b611715565b9050919050565b6000819050919050565b611e0083611dcb565b611e14611e0c82611ded565b848454611d6f565b825550505050565b600090565b611e29611e1c565b611e34818484611df7565b505050565b5b81811015611e5857611e4d600082611e21565b600181019050611e3a565b5050565b601f821115611e9d57611e6e81611d3d565b611e7784611d52565b81016020851015611e86578190505b611e9a611e9285611d52565b830182611e39565b50505b505050565b600082821c905092915050565b6000611ec060001984600802611ea2565b1980831691505092915050565b6000611ed98383611eaf565b9150826002028217905092915050565b611ef282611685565b67ffffffffffffffff811115611f0b57611f0a611d0e565b5b611f158254611b73565b611f20828285611e5c565b600060209050601f831160018114611f535760008415611f41578287015190505b611f4b8582611ecd565b865550611fb3565b601f198416611f6186611d3d565b60005b82811015611f8957848901518255600182019150602085019450602081019050611f64565b86831015611fa65784890151611fa2601f891682611eaf565b8355505b6001600288020188555050505b505050505050565b82818337600083830152505050565b6000611fd683856119e5565b9350611fe3838584611fbb565b611fec836116cb565b840190509392505050565b60006040820190508181036000830152612012818587611fca565b90506120216020830184611b1a565b949350505050565b7f496e76616c69642063656e746572206164647265737300000000000000000000600082015250565b600061205f6016836119e5565b915061206a82612029565b602082019050919050565b6000602082019050818103600083015261208e81612052565b9050919050565b7f43656e74657220616c726561647920617574686f72697a656400000000000000600082015250565b60006120cb6019836119e5565b91506120d682612095565b602082019050919050565b600060208201905081810360008301526120fa816120be565b9050919050565b7f41646472657373206973206e6f7420616e20617574686f72697a65642064696160008201527f676e6f737469632063656e746572000000000000000000000000000000000000602082015250565b600061215d602e836119e5565b915061216882612101565b604082019050919050565b6000602082019050818103600083015261218c81612150565b905091905056fea264697066735822122059ee1ecd6a66e32a2c29ccf9784537b0a73b2722b3ca6d29cd60fe2b65007d3c64736f6c634300081c0033",
  "linkReferences": {},
  "deployedLinkReferences": {}
}